{
  "contracts/CryptoFlexPixelsNFT.sol": {
    "CryptoFlexPixelsNFT": {
      "abi": [
        {
          "inputs": [],
          "stateMutability": "nonpayable",
          "type": "constructor"
        },
        {
          "anonymous": false,
          "inputs": [
            {
              "indexed": true,
              "internalType": "address",
              "name": "owner",
              "type": "address"
            },
            {
              "indexed": true,
              "internalType": "address",
              "name": "approved",
              "type": "address"
            },
            {
              "indexed": true,
              "internalType": "uint256",
              "name": "tokenId",
              "type": "uint256"
            }
          ],
          "name": "Approval",
          "type": "event"
        },
        {
          "anonymous": false,
          "inputs": [
            {
              "indexed": true,
              "internalType": "address",
              "name": "owner",
              "type": "address"
            },
            {
              "indexed": true,
              "internalType": "address",
              "name": "operator",
              "type": "address"
            },
            {
              "indexed": false,
              "internalType": "bool",
              "name": "approved",
              "type": "bool"
            }
          ],
          "name": "ApprovalForAll",
          "type": "event"
        },
        {
          "anonymous": false,
          "inputs": [
            {
              "indexed": true,
              "internalType": "address",
              "name": "previousOwner",
              "type": "address"
            },
            {
              "indexed": true,
              "internalType": "address",
              "name": "newOwner",
              "type": "address"
            }
          ],
          "name": "OwnershipTransferred",
          "type": "event"
        },
        {
          "anonymous": false,
          "inputs": [
            {
              "indexed": true,
              "internalType": "address",
              "name": "from",
              "type": "address"
            },
            {
              "indexed": true,
              "internalType": "address",
              "name": "to",
              "type": "address"
            },
            {
              "indexed": true,
              "internalType": "uint256",
              "name": "tokenId",
              "type": "uint256"
            }
          ],
          "name": "Transfer",
          "type": "event"
        },
        {
          "anonymous": false,
          "inputs": [
            {
              "indexed": true,
              "internalType": "address",
              "name": "createdBy",
              "type": "address"
            },
            {
              "indexed": true,
              "internalType": "uint256",
              "name": "tokenId",
              "type": "uint256"
            },
            {
              "indexed": true,
              "internalType": "uint256",
              "name": "tokensLeft",
              "type": "uint256"
            }
          ],
          "name": "createdGiveAwayNFT",
          "type": "event"
        },
        {
          "anonymous": false,
          "inputs": [
            {
              "indexed": true,
              "internalType": "address",
              "name": "createdBy",
              "type": "address"
            },
            {
              "indexed": true,
              "internalType": "uint256",
              "name": "tokenId",
              "type": "uint256"
            },
            {
              "indexed": true,
              "internalType": "uint256",
              "name": "tokensLeft",
              "type": "uint256"
            }
          ],
          "name": "createdRandomNFT",
          "type": "event"
        },
        {
          "inputs": [
            {
              "internalType": "address",
              "name": "",
              "type": "address"
            }
          ],
          "name": "addressToMintCount",
          "outputs": [
            {
              "internalType": "uint8",
              "name": "",
              "type": "uint8"
            }
          ],
          "stateMutability": "view",
          "type": "function"
        },
        {
          "inputs": [
            {
              "internalType": "address",
              "name": "to",
              "type": "address"
            },
            {
              "internalType": "uint256",
              "name": "tokenId",
              "type": "uint256"
            }
          ],
          "name": "approve",
          "outputs": [],
          "stateMutability": "nonpayable",
          "type": "function"
        },
        {
          "inputs": [
            {
              "internalType": "uint256",
              "name": "",
              "type": "uint256"
            }
          ],
          "name": "availableTokens",
          "outputs": [
            {
              "internalType": "uint16",
              "name": "",
              "type": "uint16"
            }
          ],
          "stateMutability": "view",
          "type": "function"
        },
        {
          "inputs": [
            {
              "internalType": "address",
              "name": "owner",
              "type": "address"
            }
          ],
          "name": "balanceOf",
          "outputs": [
            {
              "internalType": "uint256",
              "name": "",
              "type": "uint256"
            }
          ],
          "stateMutability": "view",
          "type": "function"
        },
        {
          "inputs": [],
          "name": "baseURI",
          "outputs": [
            {
              "internalType": "string",
              "name": "",
              "type": "string"
            }
          ],
          "stateMutability": "view",
          "type": "function"
        },
        {
          "inputs": [
            {
              "internalType": "uint16[]",
              "name": "tokenIds",
              "type": "uint16[]"
            }
          ],
          "name": "batchCreateGiveAway",
          "outputs": [],
          "stateMutability": "nonpayable",
          "type": "function"
        },
        {
          "inputs": [],
          "name": "create",
          "outputs": [
            {
              "internalType": "uint256",
              "name": "",
              "type": "uint256"
            }
          ],
          "stateMutability": "payable",
          "type": "function"
        },
        {
          "inputs": [
            {
              "internalType": "uint16",
              "name": "tokenId",
              "type": "uint16"
            }
          ],
          "name": "createGiveAway",
          "outputs": [],
          "stateMutability": "nonpayable",
          "type": "function"
        },
        {
          "inputs": [
            {
              "internalType": "uint256",
              "name": "tokenId",
              "type": "uint256"
            }
          ],
          "name": "getApproved",
          "outputs": [
            {
              "internalType": "address",
              "name": "",
              "type": "address"
            }
          ],
          "stateMutability": "view",
          "type": "function"
        },
        {
          "inputs": [],
          "name": "getAvailableTokensCount",
          "outputs": [
            {
              "internalType": "uint256",
              "name": "",
              "type": "uint256"
            }
          ],
          "stateMutability": "view",
          "type": "function"
        },
        {
          "inputs": [],
          "name": "getAvailableTokensList",
          "outputs": [
            {
              "internalType": "uint16[]",
              "name": "",
              "type": "uint16[]"
            }
          ],
          "stateMutability": "view",
          "type": "function"
        },
        {
          "inputs": [],
          "name": "getMintFee",
          "outputs": [
            {
              "internalType": "uint256",
              "name": "",
              "type": "uint256"
            }
          ],
          "stateMutability": "view",
          "type": "function"
        },
        {
          "inputs": [],
          "name": "giveAwayCounter",
          "outputs": [
            {
              "internalType": "uint16",
              "name": "",
              "type": "uint16"
            }
          ],
          "stateMutability": "view",
          "type": "function"
        },
        {
          "inputs": [
            {
              "internalType": "address",
              "name": "_owner",
              "type": "address"
            },
            {
              "internalType": "address",
              "name": "_operator",
              "type": "address"
            }
          ],
          "name": "isApprovedForAll",
          "outputs": [
            {
              "internalType": "bool",
              "name": "isOperator",
              "type": "bool"
            }
          ],
          "stateMutability": "view",
          "type": "function"
        },
        {
          "inputs": [],
          "name": "maxMints",
          "outputs": [
            {
              "internalType": "uint8",
              "name": "",
              "type": "uint8"
            }
          ],
          "stateMutability": "view",
          "type": "function"
        },
        {
          "inputs": [],
          "name": "name",
          "outputs": [
            {
              "internalType": "string",
              "name": "",
              "type": "string"
            }
          ],
          "stateMutability": "view",
          "type": "function"
        },
        {
          "inputs": [],
          "name": "numLeft",
          "outputs": [
            {
              "internalType": "uint256",
              "name": "",
              "type": "uint256"
            }
          ],
          "stateMutability": "view",
          "type": "function"
        },
        {
          "inputs": [],
          "name": "owner",
          "outputs": [
            {
              "internalType": "address",
              "name": "",
              "type": "address"
            }
          ],
          "stateMutability": "view",
          "type": "function"
        },
        {
          "inputs": [
            {
              "internalType": "uint256",
              "name": "tokenId",
              "type": "uint256"
            }
          ],
          "name": "ownerOf",
          "outputs": [
            {
              "internalType": "address",
              "name": "",
              "type": "address"
            }
          ],
          "stateMutability": "view",
          "type": "function"
        },
        {
          "inputs": [
            {
              "internalType": "uint16",
              "name": "_start",
              "type": "uint16"
            },
            {
              "internalType": "uint16",
              "name": "_end",
              "type": "uint16"
            }
          ],
          "name": "populateAvailableTokens",
          "outputs": [],
          "stateMutability": "nonpayable",
          "type": "function"
        },
        {
          "inputs": [],
          "name": "renounceOwnership",
          "outputs": [],
          "stateMutability": "nonpayable",
          "type": "function"
        },
        {
          "inputs": [
            {
              "internalType": "uint256",
              "name": "_tokenId",
              "type": "uint256"
            },
            {
              "internalType": "uint256",
              "name": "_salePrice",
              "type": "uint256"
            }
          ],
          "name": "royaltyInfo",
          "outputs": [
            {
              "internalType": "address",
              "name": "receiver",
              "type": "address"
            },
            {
              "internalType": "uint256",
              "name": "royaltyAmount",
              "type": "uint256"
            }
          ],
          "stateMutability": "view",
          "type": "function"
        },
        {
          "inputs": [],
          "name": "royaltyPercent",
          "outputs": [
            {
              "internalType": "uint8",
              "name": "",
              "type": "uint8"
            }
          ],
          "stateMutability": "view",
          "type": "function"
        },
        {
          "inputs": [
            {
              "internalType": "address",
              "name": "from",
              "type": "address"
            },
            {
              "internalType": "address",
              "name": "to",
              "type": "address"
            },
            {
              "internalType": "uint256",
              "name": "tokenId",
              "type": "uint256"
            }
          ],
          "name": "safeTransferFrom",
          "outputs": [],
          "stateMutability": "nonpayable",
          "type": "function"
        },
        {
          "inputs": [
            {
              "internalType": "address",
              "name": "from",
              "type": "address"
            },
            {
              "internalType": "address",
              "name": "to",
              "type": "address"
            },
            {
              "internalType": "uint256",
              "name": "tokenId",
              "type": "uint256"
            },
            {
              "internalType": "bytes",
              "name": "_data",
              "type": "bytes"
            }
          ],
          "name": "safeTransferFrom",
          "outputs": [],
          "stateMutability": "nonpayable",
          "type": "function"
        },
        {
          "inputs": [
            {
              "internalType": "address",
              "name": "operator",
              "type": "address"
            },
            {
              "internalType": "bool",
              "name": "approved",
              "type": "bool"
            }
          ],
          "name": "setApprovalForAll",
          "outputs": [],
          "stateMutability": "nonpayable",
          "type": "function"
        },
        {
          "inputs": [
            {
              "internalType": "string",
              "name": "_newBaseURI",
              "type": "string"
            }
          ],
          "name": "setBaseURI",
          "outputs": [],
          "stateMutability": "nonpayable",
          "type": "function"
        },
        {
          "inputs": [
            {
              "internalType": "bytes4",
              "name": "interfaceId",
              "type": "bytes4"
            }
          ],
          "name": "supportsInterface",
          "outputs": [
            {
              "internalType": "bool",
              "name": "",
              "type": "bool"
            }
          ],
          "stateMutability": "view",
          "type": "function"
        },
        {
          "inputs": [],
          "name": "symbol",
          "outputs": [
            {
              "internalType": "string",
              "name": "",
              "type": "string"
            }
          ],
          "stateMutability": "view",
          "type": "function"
        },
        {
          "inputs": [
            {
              "internalType": "uint256",
              "name": "tokenId",
              "type": "uint256"
            }
          ],
          "name": "tokenURI",
          "outputs": [
            {
              "internalType": "string",
              "name": "",
              "type": "string"
            }
          ],
          "stateMutability": "view",
          "type": "function"
        },
        {
          "inputs": [],
          "name": "totalPop",
          "outputs": [
            {
              "internalType": "uint16",
              "name": "",
              "type": "uint16"
            }
          ],
          "stateMutability": "view",
          "type": "function"
        },
        {
          "inputs": [
            {
              "internalType": "address",
              "name": "from",
              "type": "address"
            },
            {
              "internalType": "address",
              "name": "to",
              "type": "address"
            },
            {
              "internalType": "uint256",
              "name": "tokenId",
              "type": "uint256"
            }
          ],
          "name": "transferFrom",
          "outputs": [],
          "stateMutability": "nonpayable",
          "type": "function"
        },
        {
          "inputs": [
            {
              "internalType": "address",
              "name": "newOwner",
              "type": "address"
            }
          ],
          "name": "transferOwnership",
          "outputs": [],
          "stateMutability": "nonpayable",
          "type": "function"
        },
        {
          "inputs": [],
          "name": "withdraw",
          "outputs": [],
          "stateMutability": "payable",
          "type": "function"
        }
      ],
      "devdoc": {
        "kind": "dev",
        "methods": {
          "approve(address,uint256)": {
            "details": "See {IERC721-approve}."
          },
          "balanceOf(address)": {
            "details": "See {IERC721-balanceOf}."
          },
          "getApproved(uint256)": {
            "details": "See {IERC721-getApproved}."
          },
          "name()": {
            "details": "See {IERC721Metadata-name}."
          },
          "owner()": {
            "details": "Returns the address of the current owner."
          },
          "ownerOf(uint256)": {
            "details": "See {IERC721-ownerOf}."
          },
          "renounceOwnership()": {
            "details": "Leaves the contract without owner. It will not be possible to call `onlyOwner` functions anymore. Can only be called by the current owner. NOTE: Renouncing ownership will leave the contract without an owner, thereby removing any functionality that is only available to the owner."
          },
          "safeTransferFrom(address,address,uint256)": {
            "details": "See {IERC721-safeTransferFrom}."
          },
          "safeTransferFrom(address,address,uint256,bytes)": {
            "details": "See {IERC721-safeTransferFrom}."
          },
          "setApprovalForAll(address,bool)": {
            "details": "See {IERC721-setApprovalForAll}."
          },
          "symbol()": {
            "details": "See {IERC721Metadata-symbol}."
          },
          "tokenURI(uint256)": {
            "details": "See {IERC721Metadata-tokenURI}."
          },
          "transferFrom(address,address,uint256)": {
            "details": "See {IERC721-transferFrom}."
          },
          "transferOwnership(address)": {
            "details": "Transfers ownership of the contract to a new account (`newOwner`). Can only be called by the current owner."
          }
        },
        "version": 1
      },
      "evm": {
        "bytecode": {
          "linkReferences": {},
          "object": "600b805463ffffffff1916905561271060808181526204e2a06040529060a06204e20080368337505081516200003d92600c925060200190620002a8565b50612710600d5560405180606001604052806036815260200162002d2a6036913980516200007491600e9160209091019062000358565b503480156200008257600080fd5b50604080518082018252601081526f43727970746f466c6578506978656c7360801b60208083019182528351808501909452600684526510d19413919560d21b908401528151919291620000d99160009162000358565b508051620000ef90600190602084019062000358565b5050506200010c620001066200014b60201b60201c565b62000168565b6200011e63152a902d60e11b620001ba565b6200012f62357ab560e91b620001ba565b620001456200013d62000215565b600562000224565b62000460565b6000620001626200024a60201b620013eb1760201c565b90505b90565b600980546001600160a01b038381166001600160a01b0319831681179093556040519116919082907f8be0079c531659141344cd1fd0a4f28419497f9722a3daafe3b4186f6b6457e090600090a35050565b6001600160e01b03198082161415620001f05760405162461bcd60e51b8152600401620001e790620003ec565b60405180910390fd5b6001600160e01b0319166000908152600660205260409020805460ff19166001179055565b6009546001600160a01b031690565b600780546001600160a01b0319166001600160a01b039390931692909217909155600855565b600033301415620002a357600080368080601f0160208091040260200160405190810160405280939291908181526020018383808284376000920191909152505050503601516001600160a01b03169150620001659050565b503390565b82805482825590600052602060002090600f01601090048101928215620003465791602002820160005b838211156200031457835183826101000a81548161ffff021916908361ffff1602179055509260200192600201602081600101049283019260010302620002d2565b8015620003445782816101000a81549061ffff021916905560020160208160010104928301926001030262000314565b505b5062000354929150620003d5565b5090565b828054620003669062000423565b90600052602060002090601f0160209004810192826200038a576000855562000346565b82601f10620003a557805160ff191683800117855562000346565b8280016001018555821562000346579182015b8281111562000346578251825591602001919060010190620003b8565b5b80821115620003545760008155600101620003d6565b6020808252601c908201527f4552433136353a20696e76616c696420696e7465726661636520696400000000604082015260600190565b6002810460018216806200043857607f821691505b602082108114156200045a57634e487b7160e01b600052602260045260246000fd5b50919050565b6128ba80620004706000396000f3fe6080604052600436106101995760003560e01c8063715018a6116100dd578063715018a6146103c757806374894b79146103dc5780637a5caab3146103fe5780638da5cb5b1461041357806395d89b41146104285780639bf4337c1461043d5780639f67756d1461045f578063a22cb46514610481578063ad64d068146104a1578063b6b6f0c3146104c1578063b88d4fde146104d6578063c49b9249146104f6578063c87b56dd1461050b578063e985e9c51461052b578063efc81a8c1461054b578063f2fde38b14610553578063f75da1b31461057357610199565b806301ffc9a71461019e578063062f369d146101d457806306fdde03146101f6578063081812fc14610218578063095ea7b31461024557806323b872dd146102675780632a55205a146102875780632dcd52f2146102b557806334660765146102ca57806335fb9e13146102ea5780633ccfd60b1461030a57806342842e0e14610312578063441ca0501461033257806355f804b3146103525780636352211e146103725780636c0360eb1461039257806370a08231146103a7575b600080fd5b3480156101aa57600080fd5b506101be6101b9366004611e65565b610593565b6040516101cb919061208e565b60405180910390f35b3480156101e057600080fd5b506101e96105a6565b6040516101cb919061265b565b34801561020257600080fd5b5061020b6105ac565b6040516101cb9190612099565b34801561022457600080fd5b50610238610233366004611f25565b61063f565b6040516101cb9190611fdc565b34801561025157600080fd5b50610265610260366004611d8f565b61068b565b005b34801561027357600080fd5b50610265610282366004611ca2565b610723565b34801561029357600080fd5b506102a76102a2366004611f3d565b61075b565b6040516101cb92919061202d565b3480156102c157600080fd5b506101e9610790565b3480156102d657600080fd5b506102656102e5366004611ee2565b610796565b3480156102f657600080fd5b50610265610305366004611efc565b61093b565b610265610a71565b34801561031e57600080fd5b5061026561032d366004611ca2565b610af3565b34801561033e57600080fd5b5061026561034d366004611db8565b610b0e565b34801561035e57600080fd5b5061026561036d366004611e9d565b610b9f565b34801561037e57600080fd5b5061023861038d366004611f25565b610bf1565b34801561039e57600080fd5b5061020b610c26565b3480156103b357600080fd5b506101e96103c2366004611c5f565b610cb4565b3480156103d357600080fd5b50610265610cf8565b3480156103e857600080fd5b506103f1610d43565b6040516101cb9190612046565b34801561040a57600080fd5b506101e9610e39565b34801561041f57600080fd5b50610238610eb7565b34801561043457600080fd5b5061020b610ec6565b34801561044957600080fd5b50610452610ed5565b6040516101cb919061264c565b34801561046b57600080fd5b50610474610ee5565b6040516101cb9190612664565b34801561048d57600080fd5b5061026561049c366004611d55565b610eea565b3480156104ad57600080fd5b506104526104bc366004611f25565b610fb8565b3480156104cd57600080fd5b50610474610ff0565b3480156104e257600080fd5b506102656104f1366004611cdd565b610ff5565b34801561050257600080fd5b50610452611034565b34801561051757600080fd5b5061020b610526366004611f25565b61103e565b34801561053757600080fd5b506101be610546366004611c79565b6110c1565b6101e9611103565b34801561055f57600080fd5b5061026561056e366004611c5f565b611368565b34801561057f57600080fd5b5061047461058e366004611c5f565b6113d6565b600061059e82611447565b90505b919050565b600d5481565b6060600080546105bb90612780565b80601f01602080910402602001604051908101604052809291908181526020018280546105e790612780565b80156106345780601f1061060957610100808354040283529160200191610634565b820191906000526020600020905b81548152906001019060200180831161061757829003601f168201915b505050505090505b90565b600061064a82611478565b61066f5760405162461bcd60e51b8152600401610666906123df565b60405180910390fd5b506000908152600460205260409020546001600160a01b031690565b600061069682610bf1565b9050806001600160a01b0316836001600160a01b031614156106ca5760405162461bcd60e51b8152600401610666906124f8565b806001600160a01b03166106dc611495565b6001600160a01b031614806106f857506106f881610546611495565b6107145760405162461bcd60e51b8152600401610666906122bf565b61071e83836114a4565b505050565b61073461072e611495565b82611512565b6107505760405162461bcd60e51b815260040161066690612539565b61071e838383611597565b6007546008546001600160a01b039091169060009060649061077d90856126e4565b61078791906126d0565b90509250929050565b600d5490565b61079e611495565b6001600160a01b03166107af610eb7565b6001600160a01b0316146107d55760405162461bcd60e51b81526004016106669061242b565b600b5461012c61ffff909116106107fe5760405162461bcd60e51b81526004016106669061258a565b610813610809610eb7565b8261ffff166116c4565b600d805490600061082383612769565b9190505550600c600d548154811061084b57634e487b7160e01b600052603260045260246000fd5b60009182526020909120601082040154600f9091166002026101000a900461ffff16600c61087a600184612703565b61ffff168154811061089c57634e487b7160e01b600052603260045260246000fd5b60009182526020822060108204018054600f9092166002026101000a61ffff818102199093169483160293909317909255600b805490921691906108df836127bb565b91906101000a81548161ffff021916908361ffff16021790555050600d548161ffff16336001600160a01b03167f8587227cba5e4c595b198905190a948a31044ca1904827973a8763a7ab31ccbf60405160405180910390a450565b610943611495565b6001600160a01b0316610954610eb7565b6001600160a01b03161461097a5760405162461bcd60e51b81526004016106669061242b565b600b54829061099490839062010000900461ffff1661269b565b61099e9190612703565b6109a990600161269b565b600b805463ffff000019166201000061ffff93841681029190911791829055612710910490911611156109ee5760405162461bcd60e51b815260040161066690612615565b815b8161ffff168161ffff161161071e5780600c610a0d600183612703565b61ffff1681548110610a2f57634e487b7160e01b600052603260045260246000fd5b90600052602060002090601091828204019190066002026101000a81548161ffff021916908361ffff1602179055508080610a69906127bb565b9150506109f0565b610a79611495565b6001600160a01b0316610a8a610eb7565b6001600160a01b031614610ab05760405162461bcd60e51b81526004016106669061242b565b610ab8610eb7565b6001600160a01b03166108fc479081150290604051600060405180830381858888f19350505050158015610af0573d6000803e3d6000fd5b50565b61071e83838360405180602001604052806000815250610ff5565b610b16611495565b6001600160a01b0316610b27610eb7565b6001600160a01b031614610b4d5760405162461bcd60e51b81526004016106669061242b565b60005b8151811015610b9b57610b89828281518110610b7c57634e487b7160e01b600052603260045260246000fd5b6020026020010151610796565b80610b93816127dd565b915050610b50565b5050565b610ba7611495565b6001600160a01b0316610bb8610eb7565b6001600160a01b031614610bde5760405162461bcd60e51b81526004016106669061242b565b8051610b9b90600e906020840190611b46565b6000818152600260205260408120546001600160a01b03168061059e5760405162461bcd60e51b815260040161066690612361565b600e8054610c3390612780565b80601f0160208091040260200160405190810160405280929190818152602001828054610c5f90612780565b8015610cac5780601f10610c8157610100808354040283529160200191610cac565b820191906000526020600020905b815481529060010190602001808311610c8f57829003601f168201915b505050505081565b60006001600160a01b038216610cdc5760405162461bcd60e51b815260040161066690612317565b506001600160a01b031660009081526003602052604090205490565b610d00611495565b6001600160a01b0316610d11610eb7565b6001600160a01b031614610d375760405162461bcd60e51b81526004016106669061242b565b610d4160006116de565b565b600d546060906000816001600160401b03811115610d7157634e487b7160e01b600052604160045260246000fd5b604051908082528060200260200182016040528015610d9a578160200160208202803683370190505b50905060005b82811015610e3257600c8181548110610dc957634e487b7160e01b600052603260045260246000fd5b90600052602060002090601091828204019190066002029054906101000a900461ffff16828281518110610e0d57634e487b7160e01b600052603260045260246000fd5b61ffff9092166020928302919091019091015280610e2a816127dd565b915050610da0565b5091505090565b600d546000906125e4811115610e615760405162461bcd60e51b815260040161066690612288565b6722b1c8c1227a0000681b1ae4d6e2ef5000006000826125e3610e848285612726565b610e90876125e4612726565b610e9a91906126e4565b610ea491906126d0565b610eae91906126b8565b94505050505090565b6009546001600160a01b031690565b6060600180546105bb90612780565b600b5462010000900461ffff1681565b600581565b610ef2611495565b6001600160a01b0316826001600160a01b03161415610f235760405162461bcd60e51b815260040161066690612209565b8060056000610f30611495565b6001600160a01b03908116825260208083019390935260409182016000908120918716808252919093529120805460ff191692151592909217909155610f74611495565b6001600160a01b03167f17307eab39ab6107e8899845ad3d59bd9653f200f220920489ca2b5937696c3183604051610fac919061208e565b60405180910390a35050565b600c8181548110610fc857600080fd5b9060005260206000209060109182820401919006600202915054906101000a900461ffff1681565b601481565b611006611000611495565b83611512565b6110225760405162461bcd60e51b815260040161066690612539565b61102e84848484611730565b50505050565b600b5461ffff1681565b606061104982611478565b6110655760405162461bcd60e51b8152600401610666906124a9565b600061106f611763565b9050600081511161108f57604051806020016040528060008152506110ba565b8061109984611772565b6040516020016110aa929190611f8a565b6040516020818303038152906040525b9392505050565b60006001600160a01b0382167358807bad0b376efc12f5ad86aac70e78ed67deae14156110f0575060016110fd565b6110fa838361188c565b90505b92915050565b336000908152600a6020526040812054601460ff909116106111375760405162461bcd60e51b8152600401610666906120ac565b6000600d54116111595760405162461bcd60e51b8152600401610666906125ec565b6125e4600d54111561117d5760405162461bcd60e51b815260040161066690612288565b611185610e39565b3410156111a45760405162461bcd60e51b8152600401610666906125bf565b6000600d544233600d546040516020016111c093929190611fb9565b6040516020818303038152906040528051906020012060001c6111e39190612818565b90506000600c828154811061120857634e487b7160e01b600052603260045260246000fd5b60009182526020909120601082040154600f9091166002026101000a900461ffff16905061123633826116c4565b600c6001600d546112479190612726565b8154811061126557634e487b7160e01b600052603260045260246000fd5b90600052602060002090601091828204019190066002029054906101000a900461ffff16600c83815481106112aa57634e487b7160e01b600052603260045260246000fd5b90600052602060002090601091828204019190066002026101000a81548161ffff021916908361ffff160217905550600d60008154809291906112ec90612769565b9091555050336000908152600a60205260408120805460ff169161130f836127f8565b91906101000a81548160ff021916908360ff16021790555050600d5481336001600160a01b03167fe9d74c069bdd089c51c59f87e56dd8a7c35a793fdd64890c9178b516fc43379260405160405180910390a491505090565b611370611495565b6001600160a01b0316611381610eb7565b6001600160a01b0316146113a75760405162461bcd60e51b81526004016106669061242b565b6001600160a01b0381166113cd5760405162461bcd60e51b815260040161066690612149565b610af0816116de565b600a6020526000908152604090205460ff1681565b60003330141561144257600080368080601f0160208091040260200160405190810160405280939291908181526020018383808284376000920191909152505050503601516001600160a01b0316915061063c9050565b503390565b6000611452826118ba565b8061059e5750506001600160e01b03191660009081526006602052604090205460ff1690565b6000908152600260205260409020546001600160a01b0316151590565b600061149f6113eb565b905090565b600081815260046020526040902080546001600160a01b0319166001600160a01b03841690811790915581906114d982610bf1565b6001600160a01b03167f8c5be1e5ebec7d5bd14f71427d1e84f3dd0314c0f7b2291e5b200ac8c7c3b92560405160405180910390a45050565b600061151d82611478565b6115395760405162461bcd60e51b81526004016106669061223c565b600061154483610bf1565b9050806001600160a01b0316846001600160a01b0316148061157f5750836001600160a01b03166115748461063f565b6001600160a01b0316145b8061158f575061158f81856110c1565b949350505050565b826001600160a01b03166115aa82610bf1565b6001600160a01b0316146115d05760405162461bcd60e51b815260040161066690612460565b6001600160a01b0382166115f65760405162461bcd60e51b8152600401610666906121c5565b61160183838361071e565b61160c6000826114a4565b6001600160a01b0383166000908152600360205260408120805460019290611635908490612726565b90915550506001600160a01b03821660009081526003602052604081208054600192906116639084906126b8565b909155505060008181526002602052604080822080546001600160a01b0319166001600160a01b0386811691821790925591518493918716917fddf252ad1be2c89b69c2b068fc378daa952ba7f163c4a11628f55a4df523b3ef91a4505050565b610b9b8282604051806020016040528060008152506118fa565b600980546001600160a01b038381166001600160a01b0319831681179093556040519116919082907f8be0079c531659141344cd1fd0a4f28419497f9722a3daafe3b4186f6b6457e090600090a35050565b61173b848484611597565b6117478484848461192d565b61102e5760405162461bcd60e51b8152600401610666906120f7565b6060600e80546105bb90612780565b60608161179757506040805180820190915260018152600360fc1b60208201526105a1565b8160005b81156117c157806117ab816127dd565b91506117ba9050600a836126d0565b915061179b565b6000816001600160401b038111156117e957634e487b7160e01b600052604160045260246000fd5b6040519080825280601f01601f191660200182016040528015611813576020820181803683370190505b5090505b841561158f57611828600183612726565b9150611835600a86612818565b6118409060306126b8565b60f81b81838151811061186357634e487b7160e01b600052603260045260246000fd5b60200101906001600160f81b031916908160001a905350611885600a866126d0565b9450611817565b6001600160a01b03918216600090815260056020908152604080832093909416825291909152205460ff1690565b60006001600160e01b031982166380ac58cd60e01b14806118eb57506001600160e01b03198216635b5e139f60e01b145b8061059e575061059e82611a48565b6119048383611a61565b611911600084848461192d565b61071e5760405162461bcd60e51b8152600401610666906120f7565b6000611941846001600160a01b0316611b40565b15611a3d57836001600160a01b031663150b7a0261195d611495565b8786866040518563ffffffff1660e01b815260040161197f9493929190611ff0565b602060405180830381600087803b15801561199957600080fd5b505af19250505080156119c9575060408051601f3d908101601f191682019092526119c691810190611e81565b60015b611a23573d8080156119f7576040519150601f19603f3d011682016040523d82523d6000602084013e6119fc565b606091505b508051611a1b5760405162461bcd60e51b8152600401610666906120f7565b805181602001fd5b6001600160e01b031916630a85bd0160e11b14905061158f565b506001949350505050565b6001600160e01b031981166301ffc9a760e01b14919050565b6001600160a01b038216611a875760405162461bcd60e51b8152600401610666906123aa565b611a9081611478565b15611aad5760405162461bcd60e51b81526004016106669061218f565b611ab96000838361071e565b6001600160a01b0382166000908152600360205260408120805460019290611ae29084906126b8565b909155505060008181526002602052604080822080546001600160a01b0319166001600160a01b03861690811790915590518392907fddf252ad1be2c89b69c2b068fc378daa952ba7f163c4a11628f55a4df523b3ef908290a45050565b3b151590565b828054611b5290612780565b90600052602060002090601f016020900481019282611b745760008555611bba565b82601f10611b8d57805160ff1916838001178555611bba565b82800160010185558215611bba579182015b82811115611bba578251825591602001919060010190611b9f565b50611bc6929150611bca565b5090565b5b80821115611bc65760008155600101611bcb565b60006001600160401b03831115611bf857611bf8612858565b611c0b601f8401601f1916602001612672565b9050828152838383011115611c1f57600080fd5b828260208301376000602084830101529392505050565b80356001600160a01b03811681146105a157600080fd5b803561ffff811681146105a157600080fd5b600060208284031215611c70578081fd5b6110fa82611c36565b60008060408385031215611c8b578081fd5b611c9483611c36565b915061078760208401611c36565b600080600060608486031215611cb6578081fd5b611cbf84611c36565b9250611ccd60208501611c36565b9150604084013590509250925092565b60008060008060808587031215611cf2578081fd5b611cfb85611c36565b9350611d0960208601611c36565b92506040850135915060608501356001600160401b03811115611d2a578182fd5b8501601f81018713611d3a578182fd5b611d4987823560208401611bdf565b91505092959194509250565b60008060408385031215611d67578182fd5b611d7083611c36565b915060208301358015158114611d84578182fd5b809150509250929050565b60008060408385031215611da1578182fd5b611daa83611c36565b946020939093013593505050565b60006020808385031215611dca578182fd5b82356001600160401b0380821115611de0578384fd5b818501915085601f830112611df3578384fd5b813581811115611e0557611e05612858565b8381029150611e15848301612672565b8181528481019084860184860187018a1015611e2f578788fd5b8795505b83861015611e5857611e4481611c4d565b835260019590950194918601918601611e33565b5098975050505050505050565b600060208284031215611e76578081fd5b81356110ba8161286e565b600060208284031215611e92578081fd5b81516110ba8161286e565b600060208284031215611eae578081fd5b81356001600160401b03811115611ec3578182fd5b8201601f81018413611ed3578182fd5b61158f84823560208401611bdf565b600060208284031215611ef3578081fd5b6110fa82611c4d565b60008060408385031215611f0e578182fd5b611f1783611c4d565b915061078760208401611c4d565b600060208284031215611f36578081fd5b5035919050565b60008060408385031215611f4f578182fd5b50508035926020909101359150565b60008151808452611f7681602086016020860161273d565b601f01601f19169290920160200192915050565b60008351611f9c81846020880161273d565b835190830190611fb081836020880161273d565b01949350505050565b92835260609190911b6001600160601b0319166020830152603482015260540190565b6001600160a01b0391909116815260200190565b6001600160a01b038581168252841660208201526040810183905260806060820181905260009061202390830184611f5e565b9695505050505050565b6001600160a01b03929092168252602082015260400190565b6020808252825182820181905260009190848201906040850190845b8181101561208257835161ffff1683529284019291840191600101612062565b50909695505050505050565b901515815260200190565b6000602082526110fa6020830184611f5e565b6020808252602b908201527f416c7265616479206d696e746564206d617820616d6f756e7420666f7220746860408201526a697320616464726573732160a81b606082015260800190565b60208082526032908201527f4552433732313a207472616e7366657220746f206e6f6e20455243373231526560408201527131b2b4bb32b91034b6b83632b6b2b73a32b960711b606082015260800190565b60208082526026908201527f4f776e61626c653a206e6577206f776e657220697320746865207a65726f206160408201526564647265737360d01b606082015260800190565b6020808252601c908201527b115490cdcc8c4e881d1bdad95b88185b1c9958591e481b5a5b9d195960221b604082015260600190565b60208082526024908201527f4552433732313a207472616e7366657220746f20746865207a65726f206164646040820152637265737360e01b606082015260800190565b60208082526019908201527822a9219b99189d1030b8383937bb32903a379031b0b63632b960391b604082015260600190565b6020808252602c908201527f4552433732313a206f70657261746f7220717565727920666f72206e6f6e657860408201526b34b9ba32b73a103a37b5b2b760a11b606082015260800190565b6020808252601f908201527f476976656177617920746f6b656e73206e6f74206d696e746564207965742100604082015260600190565b60208082526038908201527f4552433732313a20617070726f76652063616c6c6572206973206e6f74206f776040820152771b995c881b9bdc88185c1c1c9bdd995908199bdc88185b1b60421b606082015260800190565b6020808252602a908201527f4552433732313a2062616c616e636520717565727920666f7220746865207a65604082015269726f206164647265737360b01b606082015260800190565b60208082526029908201527f4552433732313a206f776e657220717565727920666f72206e6f6e657869737460408201526832b73a103a37b5b2b760b91b606082015260800190565b6020808252818101527f4552433732313a206d696e7420746f20746865207a65726f2061646472657373604082015260600190565b6020808252602c908201527f4552433732313a20617070726f76656420717565727920666f72206e6f6e657860408201526b34b9ba32b73a103a37b5b2b760a11b606082015260800190565b6020808252818101527f4f776e61626c653a2063616c6c6572206973206e6f7420746865206f776e6572604082015260600190565b60208082526029908201527f4552433732313a207472616e73666572206f6620746f6b656e2074686174206960408201526839903737ba1037bbb760b91b606082015260800190565b6020808252602f908201527f4552433732314d657461646174613a2055524920717565727920666f72206e6f60408201526e3732bc34b9ba32b73a103a37b5b2b760891b606082015260800190565b60208082526021908201527f4552433732313a20617070726f76616c20746f2063757272656e74206f776e656040820152603960f91b606082015260800190565b60208082526031908201527f4552433732313a207472616e736665722063616c6c6572206973206e6f74206f6040820152701ddb995c881b9bdc88185c1c1c9bdd9959607a1b606082015260800190565b6020808252818101527f416c6c206769766561776179204e46547320616c7265616479206d696e746564604082015260600190565b602080825260139082015272496e73756666696369656e742066756e64732160681b604082015260600190565b6020808252600f908201526e4e6f20746f6b656e73206c6566742160881b604082015260600190565b6020808252601d908201527f4d617820746f6b656e7320616c726561647920706f70756c6174656421000000604082015260600190565b61ffff91909116815260200190565b90815260200190565b60ff91909116815260200190565b6040518181016001600160401b038111828210171561269357612693612858565b604052919050565b600061ffff808316818516808303821115611fb057611fb061282c565b600082198211156126cb576126cb61282c565b500190565b6000826126df576126df612842565b500490565b60008160001904831182151516156126fe576126fe61282c565b500290565b600061ffff8381169083168181101561271e5761271e61282c565b039392505050565b6000828210156127385761273861282c565b500390565b60005b83811015612758578181015183820152602001612740565b8381111561102e5750506000910152565b6000816127785761277861282c565b506000190190565b60028104600182168061279457607f821691505b602082108114156127b557634e487b7160e01b600052602260045260246000fd5b50919050565b600061ffff808316818114156127d3576127d361282c565b6001019392505050565b60006000198214156127f1576127f161282c565b5060010190565b600060ff821660ff81141561280f5761280f61282c565b60010192915050565b60008261282757612827612842565b500690565b634e487b7160e01b600052601160045260246000fd5b634e487b7160e01b600052601260045260246000fd5b634e487b7160e01b600052604160045260246000fd5b6001600160e01b031981168114610af057600080fdfea2646970667358221220e4ec8300cf5f422135e60132b456bb4507d514ef5f71d69ea7a848879754f01164736f6c63430008000033697066733a2f2f516d5743567a6e78326f66446b416647714d78485a4b33633575616162427854724d4c62616d66644e4a3135655a2f",
          "opcodes": "PUSH1 0xB DUP1 SLOAD PUSH4 0xFFFFFFFF NOT AND SWAP1 SSTORE PUSH2 0x2710 PUSH1 0x80 DUP2 DUP2 MSTORE PUSH3 0x4E2A0 PUSH1 0x40 MSTORE SWAP1 PUSH1 0xA0 PUSH3 0x4E200 DUP1 CALLDATASIZE DUP4 CALLDATACOPY POP POP DUP2 MLOAD PUSH3 0x3D SWAP3 PUSH1 0xC SWAP3 POP PUSH1 0x20 ADD SWAP1 PUSH3 0x2A8 JUMP JUMPDEST POP PUSH2 0x2710 PUSH1 0xD SSTORE PUSH1 0x40 MLOAD DUP1 PUSH1 0x60 ADD PUSH1 0x40 MSTORE DUP1 PUSH1 0x36 DUP2 MSTORE PUSH1 0x20 ADD PUSH3 0x2D2A PUSH1 0x36 SWAP2 CODECOPY DUP1 MLOAD PUSH3 0x74 SWAP2 PUSH1 0xE SWAP2 PUSH1 0x20 SWAP1 SWAP2 ADD SWAP1 PUSH3 0x358 JUMP JUMPDEST POP CALLVALUE DUP1 ISZERO PUSH3 0x82 JUMPI PUSH1 0x0 DUP1 REVERT JUMPDEST POP PUSH1 0x40 DUP1 MLOAD DUP1 DUP3 ADD DUP3 MSTORE PUSH1 0x10 DUP2 MSTORE PUSH16 0x43727970746F466C6578506978656C73 PUSH1 0x80 SHL PUSH1 0x20 DUP1 DUP4 ADD SWAP2 DUP3 MSTORE DUP4 MLOAD DUP1 DUP6 ADD SWAP1 SWAP5 MSTORE PUSH1 0x6 DUP5 MSTORE PUSH6 0x10D194139195 PUSH1 0xD2 SHL SWAP1 DUP5 ADD MSTORE DUP2 MLOAD SWAP2 SWAP3 SWAP2 PUSH3 0xD9 SWAP2 PUSH1 0x0 SWAP2 PUSH3 0x358 JUMP JUMPDEST POP DUP1 MLOAD PUSH3 0xEF SWAP1 PUSH1 0x1 SWAP1 PUSH1 0x20 DUP5 ADD SWAP1 PUSH3 0x358 JUMP JUMPDEST POP POP POP PUSH3 0x10C PUSH3 0x106 PUSH3 0x14B PUSH1 0x20 SHL PUSH1 0x20 SHR JUMP JUMPDEST PUSH3 0x168 JUMP JUMPDEST PUSH3 0x11E PUSH4 0x152A902D PUSH1 0xE1 SHL PUSH3 0x1BA JUMP JUMPDEST PUSH3 0x12F PUSH3 0x357AB5 PUSH1 0xE9 SHL PUSH3 0x1BA JUMP JUMPDEST PUSH3 0x145 PUSH3 0x13D PUSH3 0x215 JUMP JUMPDEST PUSH1 0x5 PUSH3 0x224 JUMP JUMPDEST PUSH3 0x460 JUMP JUMPDEST PUSH1 0x0 PUSH3 0x162 PUSH3 0x24A PUSH1 0x20 SHL PUSH3 0x13EB OR PUSH1 0x20 SHR JUMP JUMPDEST SWAP1 POP JUMPDEST SWAP1 JUMP JUMPDEST PUSH1 0x9 DUP1 SLOAD PUSH1 0x1 PUSH1 0x1 PUSH1 0xA0 SHL SUB DUP4 DUP2 AND PUSH1 0x1 PUSH1 0x1 PUSH1 0xA0 SHL SUB NOT DUP4 AND DUP2 OR SWAP1 SWAP4 SSTORE PUSH1 0x40 MLOAD SWAP2 AND SWAP2 SWAP1 DUP3 SWAP1 PUSH32 0x8BE0079C531659141344CD1FD0A4F28419497F9722A3DAAFE3B4186F6B6457E0 SWAP1 PUSH1 0x0 SWAP1 LOG3 POP POP JUMP JUMPDEST PUSH1 0x1 PUSH1 0x1 PUSH1 0xE0 SHL SUB NOT DUP1 DUP3 AND EQ ISZERO PUSH3 0x1F0 JUMPI PUSH1 0x40 MLOAD PUSH3 0x461BCD PUSH1 0xE5 SHL DUP2 MSTORE PUSH1 0x4 ADD PUSH3 0x1E7 SWAP1 PUSH3 0x3EC JUMP JUMPDEST PUSH1 0x40 MLOAD DUP1 SWAP2 SUB SWAP1 REVERT JUMPDEST PUSH1 0x1 PUSH1 0x1 PUSH1 0xE0 SHL SUB NOT AND PUSH1 0x0 SWAP1 DUP2 MSTORE PUSH1 0x6 PUSH1 0x20 MSTORE PUSH1 0x40 SWAP1 KECCAK256 DUP1 SLOAD PUSH1 0xFF NOT AND PUSH1 0x1 OR SWAP1 SSTORE JUMP JUMPDEST PUSH1 0x9 SLOAD PUSH1 0x1 PUSH1 0x1 PUSH1 0xA0 SHL SUB AND SWAP1 JUMP JUMPDEST PUSH1 0x7 DUP1 SLOAD PUSH1 0x1 PUSH1 0x1 PUSH1 0xA0 SHL SUB NOT AND PUSH1 0x1 PUSH1 0x1 PUSH1 0xA0 SHL SUB SWAP4 SWAP1 SWAP4 AND SWAP3 SWAP1 SWAP3 OR SWAP1 SWAP2 SSTORE PUSH1 0x8 SSTORE JUMP JUMPDEST PUSH1 0x0 CALLER ADDRESS EQ ISZERO PUSH3 0x2A3 JUMPI PUSH1 0x0 DUP1 CALLDATASIZE DUP1 DUP1 PUSH1 0x1F ADD PUSH1 0x20 DUP1 SWAP2 DIV MUL PUSH1 0x20 ADD PUSH1 0x40 MLOAD SWAP1 DUP2 ADD PUSH1 0x40 MSTORE DUP1 SWAP4 SWAP3 SWAP2 SWAP1 DUP2 DUP2 MSTORE PUSH1 0x20 ADD DUP4 DUP4 DUP1 DUP3 DUP5 CALLDATACOPY PUSH1 0x0 SWAP3 ADD SWAP2 SWAP1 SWAP2 MSTORE POP POP POP POP CALLDATASIZE ADD MLOAD PUSH1 0x1 PUSH1 0x1 PUSH1 0xA0 SHL SUB AND SWAP2 POP PUSH3 0x165 SWAP1 POP JUMP JUMPDEST POP CALLER SWAP1 JUMP JUMPDEST DUP3 DUP1 SLOAD DUP3 DUP3 SSTORE SWAP1 PUSH1 0x0 MSTORE PUSH1 0x20 PUSH1 0x0 KECCAK256 SWAP1 PUSH1 0xF ADD PUSH1 0x10 SWAP1 DIV DUP2 ADD SWAP3 DUP3 ISZERO PUSH3 0x346 JUMPI SWAP2 PUSH1 0x20 MUL DUP3 ADD PUSH1 0x0 JUMPDEST DUP4 DUP3 GT ISZERO PUSH3 0x314 JUMPI DUP4 MLOAD DUP4 DUP3 PUSH2 0x100 EXP DUP2 SLOAD DUP2 PUSH2 0xFFFF MUL NOT AND SWAP1 DUP4 PUSH2 0xFFFF AND MUL OR SWAP1 SSTORE POP SWAP3 PUSH1 0x20 ADD SWAP3 PUSH1 0x2 ADD PUSH1 0x20 DUP2 PUSH1 0x1 ADD DIV SWAP3 DUP4 ADD SWAP3 PUSH1 0x1 SUB MUL PUSH3 0x2D2 JUMP JUMPDEST DUP1 ISZERO PUSH3 0x344 JUMPI DUP3 DUP2 PUSH2 0x100 EXP DUP2 SLOAD SWAP1 PUSH2 0xFFFF MUL NOT AND SWAP1 SSTORE PUSH1 0x2 ADD PUSH1 0x20 DUP2 PUSH1 0x1 ADD DIV SWAP3 DUP4 ADD SWAP3 PUSH1 0x1 SUB MUL PUSH3 0x314 JUMP JUMPDEST POP JUMPDEST POP PUSH3 0x354 SWAP3 SWAP2 POP PUSH3 0x3D5 JUMP JUMPDEST POP SWAP1 JUMP JUMPDEST DUP3 DUP1 SLOAD PUSH3 0x366 SWAP1 PUSH3 0x423 JUMP JUMPDEST SWAP1 PUSH1 0x0 MSTORE PUSH1 0x20 PUSH1 0x0 KECCAK256 SWAP1 PUSH1 0x1F ADD PUSH1 0x20 SWAP1 DIV DUP2 ADD SWAP3 DUP3 PUSH3 0x38A JUMPI PUSH1 0x0 DUP6 SSTORE PUSH3 0x346 JUMP JUMPDEST DUP3 PUSH1 0x1F LT PUSH3 0x3A5 JUMPI DUP1 MLOAD PUSH1 0xFF NOT AND DUP4 DUP1 ADD OR DUP6 SSTORE PUSH3 0x346 JUMP JUMPDEST DUP3 DUP1 ADD PUSH1 0x1 ADD DUP6 SSTORE DUP3 ISZERO PUSH3 0x346 JUMPI SWAP2 DUP3 ADD JUMPDEST DUP3 DUP2 GT ISZERO PUSH3 0x346 JUMPI DUP3 MLOAD DUP3 SSTORE SWAP2 PUSH1 0x20 ADD SWAP2 SWAP1 PUSH1 0x1 ADD SWAP1 PUSH3 0x3B8 JUMP JUMPDEST JUMPDEST DUP1 DUP3 GT ISZERO PUSH3 0x354 JUMPI PUSH1 0x0 DUP2 SSTORE PUSH1 0x1 ADD PUSH3 0x3D6 JUMP JUMPDEST PUSH1 0x20 DUP1 DUP3 MSTORE PUSH1 0x1C SWAP1 DUP3 ADD MSTORE PUSH32 0x4552433136353A20696E76616C696420696E7465726661636520696400000000 PUSH1 0x40 DUP3 ADD MSTORE PUSH1 0x60 ADD SWAP1 JUMP JUMPDEST PUSH1 0x2 DUP2 DIV PUSH1 0x1 DUP3 AND DUP1 PUSH3 0x438 JUMPI PUSH1 0x7F DUP3 AND SWAP2 POP JUMPDEST PUSH1 0x20 DUP3 LT DUP2 EQ ISZERO PUSH3 0x45A JUMPI PUSH4 0x4E487B71 PUSH1 0xE0 SHL PUSH1 0x0 MSTORE PUSH1 0x22 PUSH1 0x4 MSTORE PUSH1 0x24 PUSH1 0x0 REVERT JUMPDEST POP SWAP2 SWAP1 POP JUMP JUMPDEST PUSH2 0x28BA DUP1 PUSH3 0x470 PUSH1 0x0 CODECOPY PUSH1 0x0 RETURN INVALID PUSH1 0x80 PUSH1 0x40 MSTORE PUSH1 0x4 CALLDATASIZE LT PUSH2 0x199 JUMPI PUSH1 0x0 CALLDATALOAD PUSH1 0xE0 SHR DUP1 PUSH4 0x715018A6 GT PUSH2 0xDD JUMPI DUP1 PUSH4 0x715018A6 EQ PUSH2 0x3C7 JUMPI DUP1 PUSH4 0x74894B79 EQ PUSH2 0x3DC JUMPI DUP1 PUSH4 0x7A5CAAB3 EQ PUSH2 0x3FE JUMPI DUP1 PUSH4 0x8DA5CB5B EQ PUSH2 0x413 JUMPI DUP1 PUSH4 0x95D89B41 EQ PUSH2 0x428 JUMPI DUP1 PUSH4 0x9BF4337C EQ PUSH2 0x43D JUMPI DUP1 PUSH4 0x9F67756D EQ PUSH2 0x45F JUMPI DUP1 PUSH4 0xA22CB465 EQ PUSH2 0x481 JUMPI DUP1 PUSH4 0xAD64D068 EQ PUSH2 0x4A1 JUMPI DUP1 PUSH4 0xB6B6F0C3 EQ PUSH2 0x4C1 JUMPI DUP1 PUSH4 0xB88D4FDE EQ PUSH2 0x4D6 JUMPI DUP1 PUSH4 0xC49B9249 EQ PUSH2 0x4F6 JUMPI DUP1 PUSH4 0xC87B56DD EQ PUSH2 0x50B JUMPI DUP1 PUSH4 0xE985E9C5 EQ PUSH2 0x52B JUMPI DUP1 PUSH4 0xEFC81A8C EQ PUSH2 0x54B JUMPI DUP1 PUSH4 0xF2FDE38B EQ PUSH2 0x553 JUMPI DUP1 PUSH4 0xF75DA1B3 EQ PUSH2 0x573 JUMPI PUSH2 0x199 JUMP JUMPDEST DUP1 PUSH4 0x1FFC9A7 EQ PUSH2 0x19E JUMPI DUP1 PUSH4 0x62F369D EQ PUSH2 0x1D4 JUMPI DUP1 PUSH4 0x6FDDE03 EQ PUSH2 0x1F6 JUMPI DUP1 PUSH4 0x81812FC EQ PUSH2 0x218 JUMPI DUP1 PUSH4 0x95EA7B3 EQ PUSH2 0x245 JUMPI DUP1 PUSH4 0x23B872DD EQ PUSH2 0x267 JUMPI DUP1 PUSH4 0x2A55205A EQ PUSH2 0x287 JUMPI DUP1 PUSH4 0x2DCD52F2 EQ PUSH2 0x2B5 JUMPI DUP1 PUSH4 0x34660765 EQ PUSH2 0x2CA JUMPI DUP1 PUSH4 0x35FB9E13 EQ PUSH2 0x2EA JUMPI DUP1 PUSH4 0x3CCFD60B EQ PUSH2 0x30A JUMPI DUP1 PUSH4 0x42842E0E EQ PUSH2 0x312 JUMPI DUP1 PUSH4 0x441CA050 EQ PUSH2 0x332 JUMPI DUP1 PUSH4 0x55F804B3 EQ PUSH2 0x352 JUMPI DUP1 PUSH4 0x6352211E EQ PUSH2 0x372 JUMPI DUP1 PUSH4 0x6C0360EB EQ PUSH2 0x392 JUMPI DUP1 PUSH4 0x70A08231 EQ PUSH2 0x3A7 JUMPI JUMPDEST PUSH1 0x0 DUP1 REVERT JUMPDEST CALLVALUE DUP1 ISZERO PUSH2 0x1AA JUMPI PUSH1 0x0 DUP1 REVERT JUMPDEST POP PUSH2 0x1BE PUSH2 0x1B9 CALLDATASIZE PUSH1 0x4 PUSH2 0x1E65 JUMP JUMPDEST PUSH2 0x593 JUMP JUMPDEST PUSH1 0x40 MLOAD PUSH2 0x1CB SWAP2 SWAP1 PUSH2 0x208E JUMP JUMPDEST PUSH1 0x40 MLOAD DUP1 SWAP2 SUB SWAP1 RETURN JUMPDEST CALLVALUE DUP1 ISZERO PUSH2 0x1E0 JUMPI PUSH1 0x0 DUP1 REVERT JUMPDEST POP PUSH2 0x1E9 PUSH2 0x5A6 JUMP JUMPDEST PUSH1 0x40 MLOAD PUSH2 0x1CB SWAP2 SWAP1 PUSH2 0x265B JUMP JUMPDEST CALLVALUE DUP1 ISZERO PUSH2 0x202 JUMPI PUSH1 0x0 DUP1 REVERT JUMPDEST POP PUSH2 0x20B PUSH2 0x5AC JUMP JUMPDEST PUSH1 0x40 MLOAD PUSH2 0x1CB SWAP2 SWAP1 PUSH2 0x2099 JUMP JUMPDEST CALLVALUE DUP1 ISZERO PUSH2 0x224 JUMPI PUSH1 0x0 DUP1 REVERT JUMPDEST POP PUSH2 0x238 PUSH2 0x233 CALLDATASIZE PUSH1 0x4 PUSH2 0x1F25 JUMP JUMPDEST PUSH2 0x63F JUMP JUMPDEST PUSH1 0x40 MLOAD PUSH2 0x1CB SWAP2 SWAP1 PUSH2 0x1FDC JUMP JUMPDEST CALLVALUE DUP1 ISZERO PUSH2 0x251 JUMPI PUSH1 0x0 DUP1 REVERT JUMPDEST POP PUSH2 0x265 PUSH2 0x260 CALLDATASIZE PUSH1 0x4 PUSH2 0x1D8F JUMP JUMPDEST PUSH2 0x68B JUMP JUMPDEST STOP JUMPDEST CALLVALUE DUP1 ISZERO PUSH2 0x273 JUMPI PUSH1 0x0 DUP1 REVERT JUMPDEST POP PUSH2 0x265 PUSH2 0x282 CALLDATASIZE PUSH1 0x4 PUSH2 0x1CA2 JUMP JUMPDEST PUSH2 0x723 JUMP JUMPDEST CALLVALUE DUP1 ISZERO PUSH2 0x293 JUMPI PUSH1 0x0 DUP1 REVERT JUMPDEST POP PUSH2 0x2A7 PUSH2 0x2A2 CALLDATASIZE PUSH1 0x4 PUSH2 0x1F3D JUMP JUMPDEST PUSH2 0x75B JUMP JUMPDEST PUSH1 0x40 MLOAD PUSH2 0x1CB SWAP3 SWAP2 SWAP1 PUSH2 0x202D JUMP JUMPDEST CALLVALUE DUP1 ISZERO PUSH2 0x2C1 JUMPI PUSH1 0x0 DUP1 REVERT JUMPDEST POP PUSH2 0x1E9 PUSH2 0x790 JUMP JUMPDEST CALLVALUE DUP1 ISZERO PUSH2 0x2D6 JUMPI PUSH1 0x0 DUP1 REVERT JUMPDEST POP PUSH2 0x265 PUSH2 0x2E5 CALLDATASIZE PUSH1 0x4 PUSH2 0x1EE2 JUMP JUMPDEST PUSH2 0x796 JUMP JUMPDEST CALLVALUE DUP1 ISZERO PUSH2 0x2F6 JUMPI PUSH1 0x0 DUP1 REVERT JUMPDEST POP PUSH2 0x265 PUSH2 0x305 CALLDATASIZE PUSH1 0x4 PUSH2 0x1EFC JUMP JUMPDEST PUSH2 0x93B JUMP JUMPDEST PUSH2 0x265 PUSH2 0xA71 JUMP JUMPDEST CALLVALUE DUP1 ISZERO PUSH2 0x31E JUMPI PUSH1 0x0 DUP1 REVERT JUMPDEST POP PUSH2 0x265 PUSH2 0x32D CALLDATASIZE PUSH1 0x4 PUSH2 0x1CA2 JUMP JUMPDEST PUSH2 0xAF3 JUMP JUMPDEST CALLVALUE DUP1 ISZERO PUSH2 0x33E JUMPI PUSH1 0x0 DUP1 REVERT JUMPDEST POP PUSH2 0x265 PUSH2 0x34D CALLDATASIZE PUSH1 0x4 PUSH2 0x1DB8 JUMP JUMPDEST PUSH2 0xB0E JUMP JUMPDEST CALLVALUE DUP1 ISZERO PUSH2 0x35E JUMPI PUSH1 0x0 DUP1 REVERT JUMPDEST POP PUSH2 0x265 PUSH2 0x36D CALLDATASIZE PUSH1 0x4 PUSH2 0x1E9D JUMP JUMPDEST PUSH2 0xB9F JUMP JUMPDEST CALLVALUE DUP1 ISZERO PUSH2 0x37E JUMPI PUSH1 0x0 DUP1 REVERT JUMPDEST POP PUSH2 0x238 PUSH2 0x38D CALLDATASIZE PUSH1 0x4 PUSH2 0x1F25 JUMP JUMPDEST PUSH2 0xBF1 JUMP JUMPDEST CALLVALUE DUP1 ISZERO PUSH2 0x39E JUMPI PUSH1 0x0 DUP1 REVERT JUMPDEST POP PUSH2 0x20B PUSH2 0xC26 JUMP JUMPDEST CALLVALUE DUP1 ISZERO PUSH2 0x3B3 JUMPI PUSH1 0x0 DUP1 REVERT JUMPDEST POP PUSH2 0x1E9 PUSH2 0x3C2 CALLDATASIZE PUSH1 0x4 PUSH2 0x1C5F JUMP JUMPDEST PUSH2 0xCB4 JUMP JUMPDEST CALLVALUE DUP1 ISZERO PUSH2 0x3D3 JUMPI PUSH1 0x0 DUP1 REVERT JUMPDEST POP PUSH2 0x265 PUSH2 0xCF8 JUMP JUMPDEST CALLVALUE DUP1 ISZERO PUSH2 0x3E8 JUMPI PUSH1 0x0 DUP1 REVERT JUMPDEST POP PUSH2 0x3F1 PUSH2 0xD43 JUMP JUMPDEST PUSH1 0x40 MLOAD PUSH2 0x1CB SWAP2 SWAP1 PUSH2 0x2046 JUMP JUMPDEST CALLVALUE DUP1 ISZERO PUSH2 0x40A JUMPI PUSH1 0x0 DUP1 REVERT JUMPDEST POP PUSH2 0x1E9 PUSH2 0xE39 JUMP JUMPDEST CALLVALUE DUP1 ISZERO PUSH2 0x41F JUMPI PUSH1 0x0 DUP1 REVERT JUMPDEST POP PUSH2 0x238 PUSH2 0xEB7 JUMP JUMPDEST CALLVALUE DUP1 ISZERO PUSH2 0x434 JUMPI PUSH1 0x0 DUP1 REVERT JUMPDEST POP PUSH2 0x20B PUSH2 0xEC6 JUMP JUMPDEST CALLVALUE DUP1 ISZERO PUSH2 0x449 JUMPI PUSH1 0x0 DUP1 REVERT JUMPDEST POP PUSH2 0x452 PUSH2 0xED5 JUMP JUMPDEST PUSH1 0x40 MLOAD PUSH2 0x1CB SWAP2 SWAP1 PUSH2 0x264C JUMP JUMPDEST CALLVALUE DUP1 ISZERO PUSH2 0x46B JUMPI PUSH1 0x0 DUP1 REVERT JUMPDEST POP PUSH2 0x474 PUSH2 0xEE5 JUMP JUMPDEST PUSH1 0x40 MLOAD PUSH2 0x1CB SWAP2 SWAP1 PUSH2 0x2664 JUMP JUMPDEST CALLVALUE DUP1 ISZERO PUSH2 0x48D JUMPI PUSH1 0x0 DUP1 REVERT JUMPDEST POP PUSH2 0x265 PUSH2 0x49C CALLDATASIZE PUSH1 0x4 PUSH2 0x1D55 JUMP JUMPDEST PUSH2 0xEEA JUMP JUMPDEST CALLVALUE DUP1 ISZERO PUSH2 0x4AD JUMPI PUSH1 0x0 DUP1 REVERT JUMPDEST POP PUSH2 0x452 PUSH2 0x4BC CALLDATASIZE PUSH1 0x4 PUSH2 0x1F25 JUMP JUMPDEST PUSH2 0xFB8 JUMP JUMPDEST CALLVALUE DUP1 ISZERO PUSH2 0x4CD JUMPI PUSH1 0x0 DUP1 REVERT JUMPDEST POP PUSH2 0x474 PUSH2 0xFF0 JUMP JUMPDEST CALLVALUE DUP1 ISZERO PUSH2 0x4E2 JUMPI PUSH1 0x0 DUP1 REVERT JUMPDEST POP PUSH2 0x265 PUSH2 0x4F1 CALLDATASIZE PUSH1 0x4 PUSH2 0x1CDD JUMP JUMPDEST PUSH2 0xFF5 JUMP JUMPDEST CALLVALUE DUP1 ISZERO PUSH2 0x502 JUMPI PUSH1 0x0 DUP1 REVERT JUMPDEST POP PUSH2 0x452 PUSH2 0x1034 JUMP JUMPDEST CALLVALUE DUP1 ISZERO PUSH2 0x517 JUMPI PUSH1 0x0 DUP1 REVERT JUMPDEST POP PUSH2 0x20B PUSH2 0x526 CALLDATASIZE PUSH1 0x4 PUSH2 0x1F25 JUMP JUMPDEST PUSH2 0x103E JUMP JUMPDEST CALLVALUE DUP1 ISZERO PUSH2 0x537 JUMPI PUSH1 0x0 DUP1 REVERT JUMPDEST POP PUSH2 0x1BE PUSH2 0x546 CALLDATASIZE PUSH1 0x4 PUSH2 0x1C79 JUMP JUMPDEST PUSH2 0x10C1 JUMP JUMPDEST PUSH2 0x1E9 PUSH2 0x1103 JUMP JUMPDEST CALLVALUE DUP1 ISZERO PUSH2 0x55F JUMPI PUSH1 0x0 DUP1 REVERT JUMPDEST POP PUSH2 0x265 PUSH2 0x56E CALLDATASIZE PUSH1 0x4 PUSH2 0x1C5F JUMP JUMPDEST PUSH2 0x1368 JUMP JUMPDEST CALLVALUE DUP1 ISZERO PUSH2 0x57F JUMPI PUSH1 0x0 DUP1 REVERT JUMPDEST POP PUSH2 0x474 PUSH2 0x58E CALLDATASIZE PUSH1 0x4 PUSH2 0x1C5F JUMP JUMPDEST PUSH2 0x13D6 JUMP JUMPDEST PUSH1 0x0 PUSH2 0x59E DUP3 PUSH2 0x1447 JUMP JUMPDEST SWAP1 POP JUMPDEST SWAP2 SWAP1 POP JUMP JUMPDEST PUSH1 0xD SLOAD DUP2 JUMP JUMPDEST PUSH1 0x60 PUSH1 0x0 DUP1 SLOAD PUSH2 0x5BB SWAP1 PUSH2 0x2780 JUMP JUMPDEST DUP1 PUSH1 0x1F ADD PUSH1 0x20 DUP1 SWAP2 DIV MUL PUSH1 0x20 ADD PUSH1 0x40 MLOAD SWAP1 DUP2 ADD PUSH1 0x40 MSTORE DUP1 SWAP3 SWAP2 SWAP1 DUP2 DUP2 MSTORE PUSH1 0x20 ADD DUP3 DUP1 SLOAD PUSH2 0x5E7 SWAP1 PUSH2 0x2780 JUMP JUMPDEST DUP1 ISZERO PUSH2 0x634 JUMPI DUP1 PUSH1 0x1F LT PUSH2 0x609 JUMPI PUSH2 0x100 DUP1 DUP4 SLOAD DIV MUL DUP4 MSTORE SWAP2 PUSH1 0x20 ADD SWAP2 PUSH2 0x634 JUMP JUMPDEST DUP3 ADD SWAP2 SWAP1 PUSH1 0x0 MSTORE PUSH1 0x20 PUSH1 0x0 KECCAK256 SWAP1 JUMPDEST DUP2 SLOAD DUP2 MSTORE SWAP1 PUSH1 0x1 ADD SWAP1 PUSH1 0x20 ADD DUP1 DUP4 GT PUSH2 0x617 JUMPI DUP3 SWAP1 SUB PUSH1 0x1F AND DUP3 ADD SWAP2 JUMPDEST POP POP POP POP POP SWAP1 POP JUMPDEST SWAP1 JUMP JUMPDEST PUSH1 0x0 PUSH2 0x64A DUP3 PUSH2 0x1478 JUMP JUMPDEST PUSH2 0x66F JUMPI PUSH1 0x40 MLOAD PUSH3 0x461BCD PUSH1 0xE5 SHL DUP2 MSTORE PUSH1 0x4 ADD PUSH2 0x666 SWAP1 PUSH2 0x23DF JUMP JUMPDEST PUSH1 0x40 MLOAD DUP1 SWAP2 SUB SWAP1 REVERT JUMPDEST POP PUSH1 0x0 SWAP1 DUP2 MSTORE PUSH1 0x4 PUSH1 0x20 MSTORE PUSH1 0x40 SWAP1 KECCAK256 SLOAD PUSH1 0x1 PUSH1 0x1 PUSH1 0xA0 SHL SUB AND SWAP1 JUMP JUMPDEST PUSH1 0x0 PUSH2 0x696 DUP3 PUSH2 0xBF1 JUMP JUMPDEST SWAP1 POP DUP1 PUSH1 0x1 PUSH1 0x1 PUSH1 0xA0 SHL SUB AND DUP4 PUSH1 0x1 PUSH1 0x1 PUSH1 0xA0 SHL SUB AND EQ ISZERO PUSH2 0x6CA JUMPI PUSH1 0x40 MLOAD PUSH3 0x461BCD PUSH1 0xE5 SHL DUP2 MSTORE PUSH1 0x4 ADD PUSH2 0x666 SWAP1 PUSH2 0x24F8 JUMP JUMPDEST DUP1 PUSH1 0x1 PUSH1 0x1 PUSH1 0xA0 SHL SUB AND PUSH2 0x6DC PUSH2 0x1495 JUMP JUMPDEST PUSH1 0x1 PUSH1 0x1 PUSH1 0xA0 SHL SUB AND EQ DUP1 PUSH2 0x6F8 JUMPI POP PUSH2 0x6F8 DUP2 PUSH2 0x546 PUSH2 0x1495 JUMP JUMPDEST PUSH2 0x714 JUMPI PUSH1 0x40 MLOAD PUSH3 0x461BCD PUSH1 0xE5 SHL DUP2 MSTORE PUSH1 0x4 ADD PUSH2 0x666 SWAP1 PUSH2 0x22BF JUMP JUMPDEST PUSH2 0x71E DUP4 DUP4 PUSH2 0x14A4 JUMP JUMPDEST POP POP POP JUMP JUMPDEST PUSH2 0x734 PUSH2 0x72E PUSH2 0x1495 JUMP JUMPDEST DUP3 PUSH2 0x1512 JUMP JUMPDEST PUSH2 0x750 JUMPI PUSH1 0x40 MLOAD PUSH3 0x461BCD PUSH1 0xE5 SHL DUP2 MSTORE PUSH1 0x4 ADD PUSH2 0x666 SWAP1 PUSH2 0x2539 JUMP JUMPDEST PUSH2 0x71E DUP4 DUP4 DUP4 PUSH2 0x1597 JUMP JUMPDEST PUSH1 0x7 SLOAD PUSH1 0x8 SLOAD PUSH1 0x1 PUSH1 0x1 PUSH1 0xA0 SHL SUB SWAP1 SWAP2 AND SWAP1 PUSH1 0x0 SWAP1 PUSH1 0x64 SWAP1 PUSH2 0x77D SWAP1 DUP6 PUSH2 0x26E4 JUMP JUMPDEST PUSH2 0x787 SWAP2 SWAP1 PUSH2 0x26D0 JUMP JUMPDEST SWAP1 POP SWAP3 POP SWAP3 SWAP1 POP JUMP JUMPDEST PUSH1 0xD SLOAD SWAP1 JUMP JUMPDEST PUSH2 0x79E PUSH2 0x1495 JUMP JUMPDEST PUSH1 0x1 PUSH1 0x1 PUSH1 0xA0 SHL SUB AND PUSH2 0x7AF PUSH2 0xEB7 JUMP JUMPDEST PUSH1 0x1 PUSH1 0x1 PUSH1 0xA0 SHL SUB AND EQ PUSH2 0x7D5 JUMPI PUSH1 0x40 MLOAD PUSH3 0x461BCD PUSH1 0xE5 SHL DUP2 MSTORE PUSH1 0x4 ADD PUSH2 0x666 SWAP1 PUSH2 0x242B JUMP JUMPDEST PUSH1 0xB SLOAD PUSH2 0x12C PUSH2 0xFFFF SWAP1 SWAP2 AND LT PUSH2 0x7FE JUMPI PUSH1 0x40 MLOAD PUSH3 0x461BCD PUSH1 0xE5 SHL DUP2 MSTORE PUSH1 0x4 ADD PUSH2 0x666 SWAP1 PUSH2 0x258A JUMP JUMPDEST PUSH2 0x813 PUSH2 0x809 PUSH2 0xEB7 JUMP JUMPDEST DUP3 PUSH2 0xFFFF AND PUSH2 0x16C4 JUMP JUMPDEST PUSH1 0xD DUP1 SLOAD SWAP1 PUSH1 0x0 PUSH2 0x823 DUP4 PUSH2 0x2769 JUMP JUMPDEST SWAP2 SWAP1 POP SSTORE POP PUSH1 0xC PUSH1 0xD SLOAD DUP2 SLOAD DUP2 LT PUSH2 0x84B JUMPI PUSH4 0x4E487B71 PUSH1 0xE0 SHL PUSH1 0x0 MSTORE PUSH1 0x32 PUSH1 0x4 MSTORE PUSH1 0x24 PUSH1 0x0 REVERT JUMPDEST PUSH1 0x0 SWAP2 DUP3 MSTORE PUSH1 0x20 SWAP1 SWAP2 KECCAK256 PUSH1 0x10 DUP3 DIV ADD SLOAD PUSH1 0xF SWAP1 SWAP2 AND PUSH1 0x2 MUL PUSH2 0x100 EXP SWAP1 DIV PUSH2 0xFFFF AND PUSH1 0xC PUSH2 0x87A PUSH1 0x1 DUP5 PUSH2 0x2703 JUMP JUMPDEST PUSH2 0xFFFF AND DUP2 SLOAD DUP2 LT PUSH2 0x89C JUMPI PUSH4 0x4E487B71 PUSH1 0xE0 SHL PUSH1 0x0 MSTORE PUSH1 0x32 PUSH1 0x4 MSTORE PUSH1 0x24 PUSH1 0x0 REVERT JUMPDEST PUSH1 0x0 SWAP2 DUP3 MSTORE PUSH1 0x20 DUP3 KECCAK256 PUSH1 0x10 DUP3 DIV ADD DUP1 SLOAD PUSH1 0xF SWAP1 SWAP3 AND PUSH1 0x2 MUL PUSH2 0x100 EXP PUSH2 0xFFFF DUP2 DUP2 MUL NOT SWAP1 SWAP4 AND SWAP5 DUP4 AND MUL SWAP4 SWAP1 SWAP4 OR SWAP1 SWAP3 SSTORE PUSH1 0xB DUP1 SLOAD SWAP1 SWAP3 AND SWAP2 SWAP1 PUSH2 0x8DF DUP4 PUSH2 0x27BB JUMP JUMPDEST SWAP2 SWAP1 PUSH2 0x100 EXP DUP2 SLOAD DUP2 PUSH2 0xFFFF MUL NOT AND SWAP1 DUP4 PUSH2 0xFFFF AND MUL OR SWAP1 SSTORE POP POP PUSH1 0xD SLOAD DUP2 PUSH2 0xFFFF AND CALLER PUSH1 0x1 PUSH1 0x1 PUSH1 0xA0 SHL SUB AND PUSH32 0x8587227CBA5E4C595B198905190A948A31044CA1904827973A8763A7AB31CCBF PUSH1 0x40 MLOAD PUSH1 0x40 MLOAD DUP1 SWAP2 SUB SWAP1 LOG4 POP JUMP JUMPDEST PUSH2 0x943 PUSH2 0x1495 JUMP JUMPDEST PUSH1 0x1 PUSH1 0x1 PUSH1 0xA0 SHL SUB AND PUSH2 0x954 PUSH2 0xEB7 JUMP JUMPDEST PUSH1 0x1 PUSH1 0x1 PUSH1 0xA0 SHL SUB AND EQ PUSH2 0x97A JUMPI PUSH1 0x40 MLOAD PUSH3 0x461BCD PUSH1 0xE5 SHL DUP2 MSTORE PUSH1 0x4 ADD PUSH2 0x666 SWAP1 PUSH2 0x242B JUMP JUMPDEST PUSH1 0xB SLOAD DUP3 SWAP1 PUSH2 0x994 SWAP1 DUP4 SWAP1 PUSH3 0x10000 SWAP1 DIV PUSH2 0xFFFF AND PUSH2 0x269B JUMP JUMPDEST PUSH2 0x99E SWAP2 SWAP1 PUSH2 0x2703 JUMP JUMPDEST PUSH2 0x9A9 SWAP1 PUSH1 0x1 PUSH2 0x269B JUMP JUMPDEST PUSH1 0xB DUP1 SLOAD PUSH4 0xFFFF0000 NOT AND PUSH3 0x10000 PUSH2 0xFFFF SWAP4 DUP5 AND DUP2 MUL SWAP2 SWAP1 SWAP2 OR SWAP2 DUP3 SWAP1 SSTORE PUSH2 0x2710 SWAP2 DIV SWAP1 SWAP2 AND GT ISZERO PUSH2 0x9EE JUMPI PUSH1 0x40 MLOAD PUSH3 0x461BCD PUSH1 0xE5 SHL DUP2 MSTORE PUSH1 0x4 ADD PUSH2 0x666 SWAP1 PUSH2 0x2615 JUMP JUMPDEST DUP2 JUMPDEST DUP2 PUSH2 0xFFFF AND DUP2 PUSH2 0xFFFF AND GT PUSH2 0x71E JUMPI DUP1 PUSH1 0xC PUSH2 0xA0D PUSH1 0x1 DUP4 PUSH2 0x2703 JUMP JUMPDEST PUSH2 0xFFFF AND DUP2 SLOAD DUP2 LT PUSH2 0xA2F JUMPI PUSH4 0x4E487B71 PUSH1 0xE0 SHL PUSH1 0x0 MSTORE PUSH1 0x32 PUSH1 0x4 MSTORE PUSH1 0x24 PUSH1 0x0 REVERT JUMPDEST SWAP1 PUSH1 0x0 MSTORE PUSH1 0x20 PUSH1 0x0 KECCAK256 SWAP1 PUSH1 0x10 SWAP2 DUP3 DUP3 DIV ADD SWAP2 SWAP1 MOD PUSH1 0x2 MUL PUSH2 0x100 EXP DUP2 SLOAD DUP2 PUSH2 0xFFFF MUL NOT AND SWAP1 DUP4 PUSH2 0xFFFF AND MUL OR SWAP1 SSTORE POP DUP1 DUP1 PUSH2 0xA69 SWAP1 PUSH2 0x27BB JUMP JUMPDEST SWAP2 POP POP PUSH2 0x9F0 JUMP JUMPDEST PUSH2 0xA79 PUSH2 0x1495 JUMP JUMPDEST PUSH1 0x1 PUSH1 0x1 PUSH1 0xA0 SHL SUB AND PUSH2 0xA8A PUSH2 0xEB7 JUMP JUMPDEST PUSH1 0x1 PUSH1 0x1 PUSH1 0xA0 SHL SUB AND EQ PUSH2 0xAB0 JUMPI PUSH1 0x40 MLOAD PUSH3 0x461BCD PUSH1 0xE5 SHL DUP2 MSTORE PUSH1 0x4 ADD PUSH2 0x666 SWAP1 PUSH2 0x242B JUMP JUMPDEST PUSH2 0xAB8 PUSH2 0xEB7 JUMP JUMPDEST PUSH1 0x1 PUSH1 0x1 PUSH1 0xA0 SHL SUB AND PUSH2 0x8FC SELFBALANCE SWAP1 DUP2 ISZERO MUL SWAP1 PUSH1 0x40 MLOAD PUSH1 0x0 PUSH1 0x40 MLOAD DUP1 DUP4 SUB DUP2 DUP6 DUP9 DUP9 CALL SWAP4 POP POP POP POP ISZERO DUP1 ISZERO PUSH2 0xAF0 JUMPI RETURNDATASIZE PUSH1 0x0 DUP1 RETURNDATACOPY RETURNDATASIZE PUSH1 0x0 REVERT JUMPDEST POP JUMP JUMPDEST PUSH2 0x71E DUP4 DUP4 DUP4 PUSH1 0x40 MLOAD DUP1 PUSH1 0x20 ADD PUSH1 0x40 MSTORE DUP1 PUSH1 0x0 DUP2 MSTORE POP PUSH2 0xFF5 JUMP JUMPDEST PUSH2 0xB16 PUSH2 0x1495 JUMP JUMPDEST PUSH1 0x1 PUSH1 0x1 PUSH1 0xA0 SHL SUB AND PUSH2 0xB27 PUSH2 0xEB7 JUMP JUMPDEST PUSH1 0x1 PUSH1 0x1 PUSH1 0xA0 SHL SUB AND EQ PUSH2 0xB4D JUMPI PUSH1 0x40 MLOAD PUSH3 0x461BCD PUSH1 0xE5 SHL DUP2 MSTORE PUSH1 0x4 ADD PUSH2 0x666 SWAP1 PUSH2 0x242B JUMP JUMPDEST PUSH1 0x0 JUMPDEST DUP2 MLOAD DUP2 LT ISZERO PUSH2 0xB9B JUMPI PUSH2 0xB89 DUP3 DUP3 DUP2 MLOAD DUP2 LT PUSH2 0xB7C JUMPI PUSH4 0x4E487B71 PUSH1 0xE0 SHL PUSH1 0x0 MSTORE PUSH1 0x32 PUSH1 0x4 MSTORE PUSH1 0x24 PUSH1 0x0 REVERT JUMPDEST PUSH1 0x20 MUL PUSH1 0x20 ADD ADD MLOAD PUSH2 0x796 JUMP JUMPDEST DUP1 PUSH2 0xB93 DUP2 PUSH2 0x27DD JUMP JUMPDEST SWAP2 POP POP PUSH2 0xB50 JUMP JUMPDEST POP POP JUMP JUMPDEST PUSH2 0xBA7 PUSH2 0x1495 JUMP JUMPDEST PUSH1 0x1 PUSH1 0x1 PUSH1 0xA0 SHL SUB AND PUSH2 0xBB8 PUSH2 0xEB7 JUMP JUMPDEST PUSH1 0x1 PUSH1 0x1 PUSH1 0xA0 SHL SUB AND EQ PUSH2 0xBDE JUMPI PUSH1 0x40 MLOAD PUSH3 0x461BCD PUSH1 0xE5 SHL DUP2 MSTORE PUSH1 0x4 ADD PUSH2 0x666 SWAP1 PUSH2 0x242B JUMP JUMPDEST DUP1 MLOAD PUSH2 0xB9B SWAP1 PUSH1 0xE SWAP1 PUSH1 0x20 DUP5 ADD SWAP1 PUSH2 0x1B46 JUMP JUMPDEST PUSH1 0x0 DUP2 DUP2 MSTORE PUSH1 0x2 PUSH1 0x20 MSTORE PUSH1 0x40 DUP2 KECCAK256 SLOAD PUSH1 0x1 PUSH1 0x1 PUSH1 0xA0 SHL SUB AND DUP1 PUSH2 0x59E JUMPI PUSH1 0x40 MLOAD PUSH3 0x461BCD PUSH1 0xE5 SHL DUP2 MSTORE PUSH1 0x4 ADD PUSH2 0x666 SWAP1 PUSH2 0x2361 JUMP JUMPDEST PUSH1 0xE DUP1 SLOAD PUSH2 0xC33 SWAP1 PUSH2 0x2780 JUMP JUMPDEST DUP1 PUSH1 0x1F ADD PUSH1 0x20 DUP1 SWAP2 DIV MUL PUSH1 0x20 ADD PUSH1 0x40 MLOAD SWAP1 DUP2 ADD PUSH1 0x40 MSTORE DUP1 SWAP3 SWAP2 SWAP1 DUP2 DUP2 MSTORE PUSH1 0x20 ADD DUP3 DUP1 SLOAD PUSH2 0xC5F SWAP1 PUSH2 0x2780 JUMP JUMPDEST DUP1 ISZERO PUSH2 0xCAC JUMPI DUP1 PUSH1 0x1F LT PUSH2 0xC81 JUMPI PUSH2 0x100 DUP1 DUP4 SLOAD DIV MUL DUP4 MSTORE SWAP2 PUSH1 0x20 ADD SWAP2 PUSH2 0xCAC JUMP JUMPDEST DUP3 ADD SWAP2 SWAP1 PUSH1 0x0 MSTORE PUSH1 0x20 PUSH1 0x0 KECCAK256 SWAP1 JUMPDEST DUP2 SLOAD DUP2 MSTORE SWAP1 PUSH1 0x1 ADD SWAP1 PUSH1 0x20 ADD DUP1 DUP4 GT PUSH2 0xC8F JUMPI DUP3 SWAP1 SUB PUSH1 0x1F AND DUP3 ADD SWAP2 JUMPDEST POP POP POP POP POP DUP2 JUMP JUMPDEST PUSH1 0x0 PUSH1 0x1 PUSH1 0x1 PUSH1 0xA0 SHL SUB DUP3 AND PUSH2 0xCDC JUMPI PUSH1 0x40 MLOAD PUSH3 0x461BCD PUSH1 0xE5 SHL DUP2 MSTORE PUSH1 0x4 ADD PUSH2 0x666 SWAP1 PUSH2 0x2317 JUMP JUMPDEST POP PUSH1 0x1 PUSH1 0x1 PUSH1 0xA0 SHL SUB AND PUSH1 0x0 SWAP1 DUP2 MSTORE PUSH1 0x3 PUSH1 0x20 MSTORE PUSH1 0x40 SWAP1 KECCAK256 SLOAD SWAP1 JUMP JUMPDEST PUSH2 0xD00 PUSH2 0x1495 JUMP JUMPDEST PUSH1 0x1 PUSH1 0x1 PUSH1 0xA0 SHL SUB AND PUSH2 0xD11 PUSH2 0xEB7 JUMP JUMPDEST PUSH1 0x1 PUSH1 0x1 PUSH1 0xA0 SHL SUB AND EQ PUSH2 0xD37 JUMPI PUSH1 0x40 MLOAD PUSH3 0x461BCD PUSH1 0xE5 SHL DUP2 MSTORE PUSH1 0x4 ADD PUSH2 0x666 SWAP1 PUSH2 0x242B JUMP JUMPDEST PUSH2 0xD41 PUSH1 0x0 PUSH2 0x16DE JUMP JUMPDEST JUMP JUMPDEST PUSH1 0xD SLOAD PUSH1 0x60 SWAP1 PUSH1 0x0 DUP2 PUSH1 0x1 PUSH1 0x1 PUSH1 0x40 SHL SUB DUP2 GT ISZERO PUSH2 0xD71 JUMPI PUSH4 0x4E487B71 PUSH1 0xE0 SHL PUSH1 0x0 MSTORE PUSH1 0x41 PUSH1 0x4 MSTORE PUSH1 0x24 PUSH1 0x0 REVERT JUMPDEST PUSH1 0x40 MLOAD SWAP1 DUP1 DUP3 MSTORE DUP1 PUSH1 0x20 MUL PUSH1 0x20 ADD DUP3 ADD PUSH1 0x40 MSTORE DUP1 ISZERO PUSH2 0xD9A JUMPI DUP2 PUSH1 0x20 ADD PUSH1 0x20 DUP3 MUL DUP1 CALLDATASIZE DUP4 CALLDATACOPY ADD SWAP1 POP JUMPDEST POP SWAP1 POP PUSH1 0x0 JUMPDEST DUP3 DUP2 LT ISZERO PUSH2 0xE32 JUMPI PUSH1 0xC DUP2 DUP2 SLOAD DUP2 LT PUSH2 0xDC9 JUMPI PUSH4 0x4E487B71 PUSH1 0xE0 SHL PUSH1 0x0 MSTORE PUSH1 0x32 PUSH1 0x4 MSTORE PUSH1 0x24 PUSH1 0x0 REVERT JUMPDEST SWAP1 PUSH1 0x0 MSTORE PUSH1 0x20 PUSH1 0x0 KECCAK256 SWAP1 PUSH1 0x10 SWAP2 DUP3 DUP3 DIV ADD SWAP2 SWAP1 MOD PUSH1 0x2 MUL SWAP1 SLOAD SWAP1 PUSH2 0x100 EXP SWAP1 DIV PUSH2 0xFFFF AND DUP3 DUP3 DUP2 MLOAD DUP2 LT PUSH2 0xE0D JUMPI PUSH4 0x4E487B71 PUSH1 0xE0 SHL PUSH1 0x0 MSTORE PUSH1 0x32 PUSH1 0x4 MSTORE PUSH1 0x24 PUSH1 0x0 REVERT JUMPDEST PUSH2 0xFFFF SWAP1 SWAP3 AND PUSH1 0x20 SWAP3 DUP4 MUL SWAP2 SWAP1 SWAP2 ADD SWAP1 SWAP2 ADD MSTORE DUP1 PUSH2 0xE2A DUP2 PUSH2 0x27DD JUMP JUMPDEST SWAP2 POP POP PUSH2 0xDA0 JUMP JUMPDEST POP SWAP2 POP POP SWAP1 JUMP JUMPDEST PUSH1 0xD SLOAD PUSH1 0x0 SWAP1 PUSH2 0x25E4 DUP2 GT ISZERO PUSH2 0xE61 JUMPI PUSH1 0x40 MLOAD PUSH3 0x461BCD PUSH1 0xE5 SHL DUP2 MSTORE PUSH1 0x4 ADD PUSH2 0x666 SWAP1 PUSH2 0x2288 JUMP JUMPDEST PUSH8 0x22B1C8C1227A0000 PUSH9 0x1B1AE4D6E2EF500000 PUSH1 0x0 DUP3 PUSH2 0x25E3 PUSH2 0xE84 DUP3 DUP6 PUSH2 0x2726 JUMP JUMPDEST PUSH2 0xE90 DUP8 PUSH2 0x25E4 PUSH2 0x2726 JUMP JUMPDEST PUSH2 0xE9A SWAP2 SWAP1 PUSH2 0x26E4 JUMP JUMPDEST PUSH2 0xEA4 SWAP2 SWAP1 PUSH2 0x26D0 JUMP JUMPDEST PUSH2 0xEAE SWAP2 SWAP1 PUSH2 0x26B8 JUMP JUMPDEST SWAP5 POP POP POP POP POP SWAP1 JUMP JUMPDEST PUSH1 0x9 SLOAD PUSH1 0x1 PUSH1 0x1 PUSH1 0xA0 SHL SUB AND SWAP1 JUMP JUMPDEST PUSH1 0x60 PUSH1 0x1 DUP1 SLOAD PUSH2 0x5BB SWAP1 PUSH2 0x2780 JUMP JUMPDEST PUSH1 0xB SLOAD PUSH3 0x10000 SWAP1 DIV PUSH2 0xFFFF AND DUP2 JUMP JUMPDEST PUSH1 0x5 DUP2 JUMP JUMPDEST PUSH2 0xEF2 PUSH2 0x1495 JUMP JUMPDEST PUSH1 0x1 PUSH1 0x1 PUSH1 0xA0 SHL SUB AND DUP3 PUSH1 0x1 PUSH1 0x1 PUSH1 0xA0 SHL SUB AND EQ ISZERO PUSH2 0xF23 JUMPI PUSH1 0x40 MLOAD PUSH3 0x461BCD PUSH1 0xE5 SHL DUP2 MSTORE PUSH1 0x4 ADD PUSH2 0x666 SWAP1 PUSH2 0x2209 JUMP JUMPDEST DUP1 PUSH1 0x5 PUSH1 0x0 PUSH2 0xF30 PUSH2 0x1495 JUMP JUMPDEST PUSH1 0x1 PUSH1 0x1 PUSH1 0xA0 SHL SUB SWAP1 DUP2 AND DUP3 MSTORE PUSH1 0x20 DUP1 DUP4 ADD SWAP4 SWAP1 SWAP4 MSTORE PUSH1 0x40 SWAP2 DUP3 ADD PUSH1 0x0 SWAP1 DUP2 KECCAK256 SWAP2 DUP8 AND DUP1 DUP3 MSTORE SWAP2 SWAP1 SWAP4 MSTORE SWAP2 KECCAK256 DUP1 SLOAD PUSH1 0xFF NOT AND SWAP3 ISZERO ISZERO SWAP3 SWAP1 SWAP3 OR SWAP1 SWAP2 SSTORE PUSH2 0xF74 PUSH2 0x1495 JUMP JUMPDEST PUSH1 0x1 PUSH1 0x1 PUSH1 0xA0 SHL SUB AND PUSH32 0x17307EAB39AB6107E8899845AD3D59BD9653F200F220920489CA2B5937696C31 DUP4 PUSH1 0x40 MLOAD PUSH2 0xFAC SWAP2 SWAP1 PUSH2 0x208E JUMP JUMPDEST PUSH1 0x40 MLOAD DUP1 SWAP2 SUB SWAP1 LOG3 POP POP JUMP JUMPDEST PUSH1 0xC DUP2 DUP2 SLOAD DUP2 LT PUSH2 0xFC8 JUMPI PUSH1 0x0 DUP1 REVERT JUMPDEST SWAP1 PUSH1 0x0 MSTORE PUSH1 0x20 PUSH1 0x0 KECCAK256 SWAP1 PUSH1 0x10 SWAP2 DUP3 DUP3 DIV ADD SWAP2 SWAP1 MOD PUSH1 0x2 MUL SWAP2 POP SLOAD SWAP1 PUSH2 0x100 EXP SWAP1 DIV PUSH2 0xFFFF AND DUP2 JUMP JUMPDEST PUSH1 0x14 DUP2 JUMP JUMPDEST PUSH2 0x1006 PUSH2 0x1000 PUSH2 0x1495 JUMP JUMPDEST DUP4 PUSH2 0x1512 JUMP JUMPDEST PUSH2 0x1022 JUMPI PUSH1 0x40 MLOAD PUSH3 0x461BCD PUSH1 0xE5 SHL DUP2 MSTORE PUSH1 0x4 ADD PUSH2 0x666 SWAP1 PUSH2 0x2539 JUMP JUMPDEST PUSH2 0x102E DUP5 DUP5 DUP5 DUP5 PUSH2 0x1730 JUMP JUMPDEST POP POP POP POP JUMP JUMPDEST PUSH1 0xB SLOAD PUSH2 0xFFFF AND DUP2 JUMP JUMPDEST PUSH1 0x60 PUSH2 0x1049 DUP3 PUSH2 0x1478 JUMP JUMPDEST PUSH2 0x1065 JUMPI PUSH1 0x40 MLOAD PUSH3 0x461BCD PUSH1 0xE5 SHL DUP2 MSTORE PUSH1 0x4 ADD PUSH2 0x666 SWAP1 PUSH2 0x24A9 JUMP JUMPDEST PUSH1 0x0 PUSH2 0x106F PUSH2 0x1763 JUMP JUMPDEST SWAP1 POP PUSH1 0x0 DUP2 MLOAD GT PUSH2 0x108F JUMPI PUSH1 0x40 MLOAD DUP1 PUSH1 0x20 ADD PUSH1 0x40 MSTORE DUP1 PUSH1 0x0 DUP2 MSTORE POP PUSH2 0x10BA JUMP JUMPDEST DUP1 PUSH2 0x1099 DUP5 PUSH2 0x1772 JUMP JUMPDEST PUSH1 0x40 MLOAD PUSH1 0x20 ADD PUSH2 0x10AA SWAP3 SWAP2 SWAP1 PUSH2 0x1F8A JUMP JUMPDEST PUSH1 0x40 MLOAD PUSH1 0x20 DUP2 DUP4 SUB SUB DUP2 MSTORE SWAP1 PUSH1 0x40 MSTORE JUMPDEST SWAP4 SWAP3 POP POP POP JUMP JUMPDEST PUSH1 0x0 PUSH1 0x1 PUSH1 0x1 PUSH1 0xA0 SHL SUB DUP3 AND PUSH20 0x58807BAD0B376EFC12F5AD86AAC70E78ED67DEAE EQ ISZERO PUSH2 0x10F0 JUMPI POP PUSH1 0x1 PUSH2 0x10FD JUMP JUMPDEST PUSH2 0x10FA DUP4 DUP4 PUSH2 0x188C JUMP JUMPDEST SWAP1 POP JUMPDEST SWAP3 SWAP2 POP POP JUMP JUMPDEST CALLER PUSH1 0x0 SWAP1 DUP2 MSTORE PUSH1 0xA PUSH1 0x20 MSTORE PUSH1 0x40 DUP2 KECCAK256 SLOAD PUSH1 0x14 PUSH1 0xFF SWAP1 SWAP2 AND LT PUSH2 0x1137 JUMPI PUSH1 0x40 MLOAD PUSH3 0x461BCD PUSH1 0xE5 SHL DUP2 MSTORE PUSH1 0x4 ADD PUSH2 0x666 SWAP1 PUSH2 0x20AC JUMP JUMPDEST PUSH1 0x0 PUSH1 0xD SLOAD GT PUSH2 0x1159 JUMPI PUSH1 0x40 MLOAD PUSH3 0x461BCD PUSH1 0xE5 SHL DUP2 MSTORE PUSH1 0x4 ADD PUSH2 0x666 SWAP1 PUSH2 0x25EC JUMP JUMPDEST PUSH2 0x25E4 PUSH1 0xD SLOAD GT ISZERO PUSH2 0x117D JUMPI PUSH1 0x40 MLOAD PUSH3 0x461BCD PUSH1 0xE5 SHL DUP2 MSTORE PUSH1 0x4 ADD PUSH2 0x666 SWAP1 PUSH2 0x2288 JUMP JUMPDEST PUSH2 0x1185 PUSH2 0xE39 JUMP JUMPDEST CALLVALUE LT ISZERO PUSH2 0x11A4 JUMPI PUSH1 0x40 MLOAD PUSH3 0x461BCD PUSH1 0xE5 SHL DUP2 MSTORE PUSH1 0x4 ADD PUSH2 0x666 SWAP1 PUSH2 0x25BF JUMP JUMPDEST PUSH1 0x0 PUSH1 0xD SLOAD TIMESTAMP CALLER PUSH1 0xD SLOAD PUSH1 0x40 MLOAD PUSH1 0x20 ADD PUSH2 0x11C0 SWAP4 SWAP3 SWAP2 SWAP1 PUSH2 0x1FB9 JUMP JUMPDEST PUSH1 0x40 MLOAD PUSH1 0x20 DUP2 DUP4 SUB SUB DUP2 MSTORE SWAP1 PUSH1 0x40 MSTORE DUP1 MLOAD SWAP1 PUSH1 0x20 ADD KECCAK256 PUSH1 0x0 SHR PUSH2 0x11E3 SWAP2 SWAP1 PUSH2 0x2818 JUMP JUMPDEST SWAP1 POP PUSH1 0x0 PUSH1 0xC DUP3 DUP2 SLOAD DUP2 LT PUSH2 0x1208 JUMPI PUSH4 0x4E487B71 PUSH1 0xE0 SHL PUSH1 0x0 MSTORE PUSH1 0x32 PUSH1 0x4 MSTORE PUSH1 0x24 PUSH1 0x0 REVERT JUMPDEST PUSH1 0x0 SWAP2 DUP3 MSTORE PUSH1 0x20 SWAP1 SWAP2 KECCAK256 PUSH1 0x10 DUP3 DIV ADD SLOAD PUSH1 0xF SWAP1 SWAP2 AND PUSH1 0x2 MUL PUSH2 0x100 EXP SWAP1 DIV PUSH2 0xFFFF AND SWAP1 POP PUSH2 0x1236 CALLER DUP3 PUSH2 0x16C4 JUMP JUMPDEST PUSH1 0xC PUSH1 0x1 PUSH1 0xD SLOAD PUSH2 0x1247 SWAP2 SWAP1 PUSH2 0x2726 JUMP JUMPDEST DUP2 SLOAD DUP2 LT PUSH2 0x1265 JUMPI PUSH4 0x4E487B71 PUSH1 0xE0 SHL PUSH1 0x0 MSTORE PUSH1 0x32 PUSH1 0x4 MSTORE PUSH1 0x24 PUSH1 0x0 REVERT JUMPDEST SWAP1 PUSH1 0x0 MSTORE PUSH1 0x20 PUSH1 0x0 KECCAK256 SWAP1 PUSH1 0x10 SWAP2 DUP3 DUP3 DIV ADD SWAP2 SWAP1 MOD PUSH1 0x2 MUL SWAP1 SLOAD SWAP1 PUSH2 0x100 EXP SWAP1 DIV PUSH2 0xFFFF AND PUSH1 0xC DUP4 DUP2 SLOAD DUP2 LT PUSH2 0x12AA JUMPI PUSH4 0x4E487B71 PUSH1 0xE0 SHL PUSH1 0x0 MSTORE PUSH1 0x32 PUSH1 0x4 MSTORE PUSH1 0x24 PUSH1 0x0 REVERT JUMPDEST SWAP1 PUSH1 0x0 MSTORE PUSH1 0x20 PUSH1 0x0 KECCAK256 SWAP1 PUSH1 0x10 SWAP2 DUP3 DUP3 DIV ADD SWAP2 SWAP1 MOD PUSH1 0x2 MUL PUSH2 0x100 EXP DUP2 SLOAD DUP2 PUSH2 0xFFFF MUL NOT AND SWAP1 DUP4 PUSH2 0xFFFF AND MUL OR SWAP1 SSTORE POP PUSH1 0xD PUSH1 0x0 DUP2 SLOAD DUP1 SWAP3 SWAP2 SWAP1 PUSH2 0x12EC SWAP1 PUSH2 0x2769 JUMP JUMPDEST SWAP1 SWAP2 SSTORE POP POP CALLER PUSH1 0x0 SWAP1 DUP2 MSTORE PUSH1 0xA PUSH1 0x20 MSTORE PUSH1 0x40 DUP2 KECCAK256 DUP1 SLOAD PUSH1 0xFF AND SWAP2 PUSH2 0x130F DUP4 PUSH2 0x27F8 JUMP JUMPDEST SWAP2 SWAP1 PUSH2 0x100 EXP DUP2 SLOAD DUP2 PUSH1 0xFF MUL NOT AND SWAP1 DUP4 PUSH1 0xFF AND MUL OR SWAP1 SSTORE POP POP PUSH1 0xD SLOAD DUP2 CALLER PUSH1 0x1 PUSH1 0x1 PUSH1 0xA0 SHL SUB AND PUSH32 0xE9D74C069BDD089C51C59F87E56DD8A7C35A793FDD64890C9178B516FC433792 PUSH1 0x40 MLOAD PUSH1 0x40 MLOAD DUP1 SWAP2 SUB SWAP1 LOG4 SWAP2 POP POP SWAP1 JUMP JUMPDEST PUSH2 0x1370 PUSH2 0x1495 JUMP JUMPDEST PUSH1 0x1 PUSH1 0x1 PUSH1 0xA0 SHL SUB AND PUSH2 0x1381 PUSH2 0xEB7 JUMP JUMPDEST PUSH1 0x1 PUSH1 0x1 PUSH1 0xA0 SHL SUB AND EQ PUSH2 0x13A7 JUMPI PUSH1 0x40 MLOAD PUSH3 0x461BCD PUSH1 0xE5 SHL DUP2 MSTORE PUSH1 0x4 ADD PUSH2 0x666 SWAP1 PUSH2 0x242B JUMP JUMPDEST PUSH1 0x1 PUSH1 0x1 PUSH1 0xA0 SHL SUB DUP2 AND PUSH2 0x13CD JUMPI PUSH1 0x40 MLOAD PUSH3 0x461BCD PUSH1 0xE5 SHL DUP2 MSTORE PUSH1 0x4 ADD PUSH2 0x666 SWAP1 PUSH2 0x2149 JUMP JUMPDEST PUSH2 0xAF0 DUP2 PUSH2 0x16DE JUMP JUMPDEST PUSH1 0xA PUSH1 0x20 MSTORE PUSH1 0x0 SWAP1 DUP2 MSTORE PUSH1 0x40 SWAP1 KECCAK256 SLOAD PUSH1 0xFF AND DUP2 JUMP JUMPDEST PUSH1 0x0 CALLER ADDRESS EQ ISZERO PUSH2 0x1442 JUMPI PUSH1 0x0 DUP1 CALLDATASIZE DUP1 DUP1 PUSH1 0x1F ADD PUSH1 0x20 DUP1 SWAP2 DIV MUL PUSH1 0x20 ADD PUSH1 0x40 MLOAD SWAP1 DUP2 ADD PUSH1 0x40 MSTORE DUP1 SWAP4 SWAP3 SWAP2 SWAP1 DUP2 DUP2 MSTORE PUSH1 0x20 ADD DUP4 DUP4 DUP1 DUP3 DUP5 CALLDATACOPY PUSH1 0x0 SWAP3 ADD SWAP2 SWAP1 SWAP2 MSTORE POP POP POP POP CALLDATASIZE ADD MLOAD PUSH1 0x1 PUSH1 0x1 PUSH1 0xA0 SHL SUB AND SWAP2 POP PUSH2 0x63C SWAP1 POP JUMP JUMPDEST POP CALLER SWAP1 JUMP JUMPDEST PUSH1 0x0 PUSH2 0x1452 DUP3 PUSH2 0x18BA JUMP JUMPDEST DUP1 PUSH2 0x59E JUMPI POP POP PUSH1 0x1 PUSH1 0x1 PUSH1 0xE0 SHL SUB NOT AND PUSH1 0x0 SWAP1 DUP2 MSTORE PUSH1 0x6 PUSH1 0x20 MSTORE PUSH1 0x40 SWAP1 KECCAK256 SLOAD PUSH1 0xFF AND SWAP1 JUMP JUMPDEST PUSH1 0x0 SWAP1 DUP2 MSTORE PUSH1 0x2 PUSH1 0x20 MSTORE PUSH1 0x40 SWAP1 KECCAK256 SLOAD PUSH1 0x1 PUSH1 0x1 PUSH1 0xA0 SHL SUB AND ISZERO ISZERO SWAP1 JUMP JUMPDEST PUSH1 0x0 PUSH2 0x149F PUSH2 0x13EB JUMP JUMPDEST SWAP1 POP SWAP1 JUMP JUMPDEST PUSH1 0x0 DUP2 DUP2 MSTORE PUSH1 0x4 PUSH1 0x20 MSTORE PUSH1 0x40 SWAP1 KECCAK256 DUP1 SLOAD PUSH1 0x1 PUSH1 0x1 PUSH1 0xA0 SHL SUB NOT AND PUSH1 0x1 PUSH1 0x1 PUSH1 0xA0 SHL SUB DUP5 AND SWAP1 DUP2 OR SWAP1 SWAP2 SSTORE DUP2 SWAP1 PUSH2 0x14D9 DUP3 PUSH2 0xBF1 JUMP JUMPDEST PUSH1 0x1 PUSH1 0x1 PUSH1 0xA0 SHL SUB AND PUSH32 0x8C5BE1E5EBEC7D5BD14F71427D1E84F3DD0314C0F7B2291E5B200AC8C7C3B925 PUSH1 0x40 MLOAD PUSH1 0x40 MLOAD DUP1 SWAP2 SUB SWAP1 LOG4 POP POP JUMP JUMPDEST PUSH1 0x0 PUSH2 0x151D DUP3 PUSH2 0x1478 JUMP JUMPDEST PUSH2 0x1539 JUMPI PUSH1 0x40 MLOAD PUSH3 0x461BCD PUSH1 0xE5 SHL DUP2 MSTORE PUSH1 0x4 ADD PUSH2 0x666 SWAP1 PUSH2 0x223C JUMP JUMPDEST PUSH1 0x0 PUSH2 0x1544 DUP4 PUSH2 0xBF1 JUMP JUMPDEST SWAP1 POP DUP1 PUSH1 0x1 PUSH1 0x1 PUSH1 0xA0 SHL SUB AND DUP5 PUSH1 0x1 PUSH1 0x1 PUSH1 0xA0 SHL SUB AND EQ DUP1 PUSH2 0x157F JUMPI POP DUP4 PUSH1 0x1 PUSH1 0x1 PUSH1 0xA0 SHL SUB AND PUSH2 0x1574 DUP5 PUSH2 0x63F JUMP JUMPDEST PUSH1 0x1 PUSH1 0x1 PUSH1 0xA0 SHL SUB AND EQ JUMPDEST DUP1 PUSH2 0x158F JUMPI POP PUSH2 0x158F DUP2 DUP6 PUSH2 0x10C1 JUMP JUMPDEST SWAP5 SWAP4 POP POP POP POP JUMP JUMPDEST DUP3 PUSH1 0x1 PUSH1 0x1 PUSH1 0xA0 SHL SUB AND PUSH2 0x15AA DUP3 PUSH2 0xBF1 JUMP JUMPDEST PUSH1 0x1 PUSH1 0x1 PUSH1 0xA0 SHL SUB AND EQ PUSH2 0x15D0 JUMPI PUSH1 0x40 MLOAD PUSH3 0x461BCD PUSH1 0xE5 SHL DUP2 MSTORE PUSH1 0x4 ADD PUSH2 0x666 SWAP1 PUSH2 0x2460 JUMP JUMPDEST PUSH1 0x1 PUSH1 0x1 PUSH1 0xA0 SHL SUB DUP3 AND PUSH2 0x15F6 JUMPI PUSH1 0x40 MLOAD PUSH3 0x461BCD PUSH1 0xE5 SHL DUP2 MSTORE PUSH1 0x4 ADD PUSH2 0x666 SWAP1 PUSH2 0x21C5 JUMP JUMPDEST PUSH2 0x1601 DUP4 DUP4 DUP4 PUSH2 0x71E JUMP JUMPDEST PUSH2 0x160C PUSH1 0x0 DUP3 PUSH2 0x14A4 JUMP JUMPDEST PUSH1 0x1 PUSH1 0x1 PUSH1 0xA0 SHL SUB DUP4 AND PUSH1 0x0 SWAP1 DUP2 MSTORE PUSH1 0x3 PUSH1 0x20 MSTORE PUSH1 0x40 DUP2 KECCAK256 DUP1 SLOAD PUSH1 0x1 SWAP3 SWAP1 PUSH2 0x1635 SWAP1 DUP5 SWAP1 PUSH2 0x2726 JUMP JUMPDEST SWAP1 SWAP2 SSTORE POP POP PUSH1 0x1 PUSH1 0x1 PUSH1 0xA0 SHL SUB DUP3 AND PUSH1 0x0 SWAP1 DUP2 MSTORE PUSH1 0x3 PUSH1 0x20 MSTORE PUSH1 0x40 DUP2 KECCAK256 DUP1 SLOAD PUSH1 0x1 SWAP3 SWAP1 PUSH2 0x1663 SWAP1 DUP5 SWAP1 PUSH2 0x26B8 JUMP JUMPDEST SWAP1 SWAP2 SSTORE POP POP PUSH1 0x0 DUP2 DUP2 MSTORE PUSH1 0x2 PUSH1 0x20 MSTORE PUSH1 0x40 DUP1 DUP3 KECCAK256 DUP1 SLOAD PUSH1 0x1 PUSH1 0x1 PUSH1 0xA0 SHL SUB NOT AND PUSH1 0x1 PUSH1 0x1 PUSH1 0xA0 SHL SUB DUP7 DUP2 AND SWAP2 DUP3 OR SWAP1 SWAP3 SSTORE SWAP2 MLOAD DUP5 SWAP4 SWAP2 DUP8 AND SWAP2 PUSH32 0xDDF252AD1BE2C89B69C2B068FC378DAA952BA7F163C4A11628F55A4DF523B3EF SWAP2 LOG4 POP POP POP JUMP JUMPDEST PUSH2 0xB9B DUP3 DUP3 PUSH1 0x40 MLOAD DUP1 PUSH1 0x20 ADD PUSH1 0x40 MSTORE DUP1 PUSH1 0x0 DUP2 MSTORE POP PUSH2 0x18FA JUMP JUMPDEST PUSH1 0x9 DUP1 SLOAD PUSH1 0x1 PUSH1 0x1 PUSH1 0xA0 SHL SUB DUP4 DUP2 AND PUSH1 0x1 PUSH1 0x1 PUSH1 0xA0 SHL SUB NOT DUP4 AND DUP2 OR SWAP1 SWAP4 SSTORE PUSH1 0x40 MLOAD SWAP2 AND SWAP2 SWAP1 DUP3 SWAP1 PUSH32 0x8BE0079C531659141344CD1FD0A4F28419497F9722A3DAAFE3B4186F6B6457E0 SWAP1 PUSH1 0x0 SWAP1 LOG3 POP POP JUMP JUMPDEST PUSH2 0x173B DUP5 DUP5 DUP5 PUSH2 0x1597 JUMP JUMPDEST PUSH2 0x1747 DUP5 DUP5 DUP5 DUP5 PUSH2 0x192D JUMP JUMPDEST PUSH2 0x102E JUMPI PUSH1 0x40 MLOAD PUSH3 0x461BCD PUSH1 0xE5 SHL DUP2 MSTORE PUSH1 0x4 ADD PUSH2 0x666 SWAP1 PUSH2 0x20F7 JUMP JUMPDEST PUSH1 0x60 PUSH1 0xE DUP1 SLOAD PUSH2 0x5BB SWAP1 PUSH2 0x2780 JUMP JUMPDEST PUSH1 0x60 DUP2 PUSH2 0x1797 JUMPI POP PUSH1 0x40 DUP1 MLOAD DUP1 DUP3 ADD SWAP1 SWAP2 MSTORE PUSH1 0x1 DUP2 MSTORE PUSH1 0x3 PUSH1 0xFC SHL PUSH1 0x20 DUP3 ADD MSTORE PUSH2 0x5A1 JUMP JUMPDEST DUP2 PUSH1 0x0 JUMPDEST DUP2 ISZERO PUSH2 0x17C1 JUMPI DUP1 PUSH2 0x17AB DUP2 PUSH2 0x27DD JUMP JUMPDEST SWAP2 POP PUSH2 0x17BA SWAP1 POP PUSH1 0xA DUP4 PUSH2 0x26D0 JUMP JUMPDEST SWAP2 POP PUSH2 0x179B JUMP JUMPDEST PUSH1 0x0 DUP2 PUSH1 0x1 PUSH1 0x1 PUSH1 0x40 SHL SUB DUP2 GT ISZERO PUSH2 0x17E9 JUMPI PUSH4 0x4E487B71 PUSH1 0xE0 SHL PUSH1 0x0 MSTORE PUSH1 0x41 PUSH1 0x4 MSTORE PUSH1 0x24 PUSH1 0x0 REVERT JUMPDEST PUSH1 0x40 MLOAD SWAP1 DUP1 DUP3 MSTORE DUP1 PUSH1 0x1F ADD PUSH1 0x1F NOT AND PUSH1 0x20 ADD DUP3 ADD PUSH1 0x40 MSTORE DUP1 ISZERO PUSH2 0x1813 JUMPI PUSH1 0x20 DUP3 ADD DUP2 DUP1 CALLDATASIZE DUP4 CALLDATACOPY ADD SWAP1 POP JUMPDEST POP SWAP1 POP JUMPDEST DUP5 ISZERO PUSH2 0x158F JUMPI PUSH2 0x1828 PUSH1 0x1 DUP4 PUSH2 0x2726 JUMP JUMPDEST SWAP2 POP PUSH2 0x1835 PUSH1 0xA DUP7 PUSH2 0x2818 JUMP JUMPDEST PUSH2 0x1840 SWAP1 PUSH1 0x30 PUSH2 0x26B8 JUMP JUMPDEST PUSH1 0xF8 SHL DUP2 DUP4 DUP2 MLOAD DUP2 LT PUSH2 0x1863 JUMPI PUSH4 0x4E487B71 PUSH1 0xE0 SHL PUSH1 0x0 MSTORE PUSH1 0x32 PUSH1 0x4 MSTORE PUSH1 0x24 PUSH1 0x0 REVERT JUMPDEST PUSH1 0x20 ADD ADD SWAP1 PUSH1 0x1 PUSH1 0x1 PUSH1 0xF8 SHL SUB NOT AND SWAP1 DUP2 PUSH1 0x0 BYTE SWAP1 MSTORE8 POP PUSH2 0x1885 PUSH1 0xA DUP7 PUSH2 0x26D0 JUMP JUMPDEST SWAP5 POP PUSH2 0x1817 JUMP JUMPDEST PUSH1 0x1 PUSH1 0x1 PUSH1 0xA0 SHL SUB SWAP2 DUP3 AND PUSH1 0x0 SWAP1 DUP2 MSTORE PUSH1 0x5 PUSH1 0x20 SWAP1 DUP2 MSTORE PUSH1 0x40 DUP1 DUP4 KECCAK256 SWAP4 SWAP1 SWAP5 AND DUP3 MSTORE SWAP2 SWAP1 SWAP2 MSTORE KECCAK256 SLOAD PUSH1 0xFF AND SWAP1 JUMP JUMPDEST PUSH1 0x0 PUSH1 0x1 PUSH1 0x1 PUSH1 0xE0 SHL SUB NOT DUP3 AND PUSH4 0x80AC58CD PUSH1 0xE0 SHL EQ DUP1 PUSH2 0x18EB JUMPI POP PUSH1 0x1 PUSH1 0x1 PUSH1 0xE0 SHL SUB NOT DUP3 AND PUSH4 0x5B5E139F PUSH1 0xE0 SHL EQ JUMPDEST DUP1 PUSH2 0x59E JUMPI POP PUSH2 0x59E DUP3 PUSH2 0x1A48 JUMP JUMPDEST PUSH2 0x1904 DUP4 DUP4 PUSH2 0x1A61 JUMP JUMPDEST PUSH2 0x1911 PUSH1 0x0 DUP5 DUP5 DUP5 PUSH2 0x192D JUMP JUMPDEST PUSH2 0x71E JUMPI PUSH1 0x40 MLOAD PUSH3 0x461BCD PUSH1 0xE5 SHL DUP2 MSTORE PUSH1 0x4 ADD PUSH2 0x666 SWAP1 PUSH2 0x20F7 JUMP JUMPDEST PUSH1 0x0 PUSH2 0x1941 DUP5 PUSH1 0x1 PUSH1 0x1 PUSH1 0xA0 SHL SUB AND PUSH2 0x1B40 JUMP JUMPDEST ISZERO PUSH2 0x1A3D JUMPI DUP4 PUSH1 0x1 PUSH1 0x1 PUSH1 0xA0 SHL SUB AND PUSH4 0x150B7A02 PUSH2 0x195D PUSH2 0x1495 JUMP JUMPDEST DUP8 DUP7 DUP7 PUSH1 0x40 MLOAD DUP6 PUSH4 0xFFFFFFFF AND PUSH1 0xE0 SHL DUP2 MSTORE PUSH1 0x4 ADD PUSH2 0x197F SWAP5 SWAP4 SWAP3 SWAP2 SWAP1 PUSH2 0x1FF0 JUMP JUMPDEST PUSH1 0x20 PUSH1 0x40 MLOAD DUP1 DUP4 SUB DUP2 PUSH1 0x0 DUP8 DUP1 EXTCODESIZE ISZERO DUP1 ISZERO PUSH2 0x1999 JUMPI PUSH1 0x0 DUP1 REVERT JUMPDEST POP GAS CALL SWAP3 POP POP POP DUP1 ISZERO PUSH2 0x19C9 JUMPI POP PUSH1 0x40 DUP1 MLOAD PUSH1 0x1F RETURNDATASIZE SWAP1 DUP2 ADD PUSH1 0x1F NOT AND DUP3 ADD SWAP1 SWAP3 MSTORE PUSH2 0x19C6 SWAP2 DUP2 ADD SWAP1 PUSH2 0x1E81 JUMP JUMPDEST PUSH1 0x1 JUMPDEST PUSH2 0x1A23 JUMPI RETURNDATASIZE DUP1 DUP1 ISZERO PUSH2 0x19F7 JUMPI PUSH1 0x40 MLOAD SWAP2 POP PUSH1 0x1F NOT PUSH1 0x3F RETURNDATASIZE ADD AND DUP3 ADD PUSH1 0x40 MSTORE RETURNDATASIZE DUP3 MSTORE RETURNDATASIZE PUSH1 0x0 PUSH1 0x20 DUP5 ADD RETURNDATACOPY PUSH2 0x19FC JUMP JUMPDEST PUSH1 0x60 SWAP2 POP JUMPDEST POP DUP1 MLOAD PUSH2 0x1A1B JUMPI PUSH1 0x40 MLOAD PUSH3 0x461BCD PUSH1 0xE5 SHL DUP2 MSTORE PUSH1 0x4 ADD PUSH2 0x666 SWAP1 PUSH2 0x20F7 JUMP JUMPDEST DUP1 MLOAD DUP2 PUSH1 0x20 ADD REVERT JUMPDEST PUSH1 0x1 PUSH1 0x1 PUSH1 0xE0 SHL SUB NOT AND PUSH4 0xA85BD01 PUSH1 0xE1 SHL EQ SWAP1 POP PUSH2 0x158F JUMP JUMPDEST POP PUSH1 0x1 SWAP5 SWAP4 POP POP POP POP JUMP JUMPDEST PUSH1 0x1 PUSH1 0x1 PUSH1 0xE0 SHL SUB NOT DUP2 AND PUSH4 0x1FFC9A7 PUSH1 0xE0 SHL EQ SWAP2 SWAP1 POP JUMP JUMPDEST PUSH1 0x1 PUSH1 0x1 PUSH1 0xA0 SHL SUB DUP3 AND PUSH2 0x1A87 JUMPI PUSH1 0x40 MLOAD PUSH3 0x461BCD PUSH1 0xE5 SHL DUP2 MSTORE PUSH1 0x4 ADD PUSH2 0x666 SWAP1 PUSH2 0x23AA JUMP JUMPDEST PUSH2 0x1A90 DUP2 PUSH2 0x1478 JUMP JUMPDEST ISZERO PUSH2 0x1AAD JUMPI PUSH1 0x40 MLOAD PUSH3 0x461BCD PUSH1 0xE5 SHL DUP2 MSTORE PUSH1 0x4 ADD PUSH2 0x666 SWAP1 PUSH2 0x218F JUMP JUMPDEST PUSH2 0x1AB9 PUSH1 0x0 DUP4 DUP4 PUSH2 0x71E JUMP JUMPDEST PUSH1 0x1 PUSH1 0x1 PUSH1 0xA0 SHL SUB DUP3 AND PUSH1 0x0 SWAP1 DUP2 MSTORE PUSH1 0x3 PUSH1 0x20 MSTORE PUSH1 0x40 DUP2 KECCAK256 DUP1 SLOAD PUSH1 0x1 SWAP3 SWAP1 PUSH2 0x1AE2 SWAP1 DUP5 SWAP1 PUSH2 0x26B8 JUMP JUMPDEST SWAP1 SWAP2 SSTORE POP POP PUSH1 0x0 DUP2 DUP2 MSTORE PUSH1 0x2 PUSH1 0x20 MSTORE PUSH1 0x40 DUP1 DUP3 KECCAK256 DUP1 SLOAD PUSH1 0x1 PUSH1 0x1 PUSH1 0xA0 SHL SUB NOT AND PUSH1 0x1 PUSH1 0x1 PUSH1 0xA0 SHL SUB DUP7 AND SWAP1 DUP2 OR SWAP1 SWAP2 SSTORE SWAP1 MLOAD DUP4 SWAP3 SWAP1 PUSH32 0xDDF252AD1BE2C89B69C2B068FC378DAA952BA7F163C4A11628F55A4DF523B3EF SWAP1 DUP3 SWAP1 LOG4 POP POP JUMP JUMPDEST EXTCODESIZE ISZERO ISZERO SWAP1 JUMP JUMPDEST DUP3 DUP1 SLOAD PUSH2 0x1B52 SWAP1 PUSH2 0x2780 JUMP JUMPDEST SWAP1 PUSH1 0x0 MSTORE PUSH1 0x20 PUSH1 0x0 KECCAK256 SWAP1 PUSH1 0x1F ADD PUSH1 0x20 SWAP1 DIV DUP2 ADD SWAP3 DUP3 PUSH2 0x1B74 JUMPI PUSH1 0x0 DUP6 SSTORE PUSH2 0x1BBA JUMP JUMPDEST DUP3 PUSH1 0x1F LT PUSH2 0x1B8D JUMPI DUP1 MLOAD PUSH1 0xFF NOT AND DUP4 DUP1 ADD OR DUP6 SSTORE PUSH2 0x1BBA JUMP JUMPDEST DUP3 DUP1 ADD PUSH1 0x1 ADD DUP6 SSTORE DUP3 ISZERO PUSH2 0x1BBA JUMPI SWAP2 DUP3 ADD JUMPDEST DUP3 DUP2 GT ISZERO PUSH2 0x1BBA JUMPI DUP3 MLOAD DUP3 SSTORE SWAP2 PUSH1 0x20 ADD SWAP2 SWAP1 PUSH1 0x1 ADD SWAP1 PUSH2 0x1B9F JUMP JUMPDEST POP PUSH2 0x1BC6 SWAP3 SWAP2 POP PUSH2 0x1BCA JUMP JUMPDEST POP SWAP1 JUMP JUMPDEST JUMPDEST DUP1 DUP3 GT ISZERO PUSH2 0x1BC6 JUMPI PUSH1 0x0 DUP2 SSTORE PUSH1 0x1 ADD PUSH2 0x1BCB JUMP JUMPDEST PUSH1 0x0 PUSH1 0x1 PUSH1 0x1 PUSH1 0x40 SHL SUB DUP4 GT ISZERO PUSH2 0x1BF8 JUMPI PUSH2 0x1BF8 PUSH2 0x2858 JUMP JUMPDEST PUSH2 0x1C0B PUSH1 0x1F DUP5 ADD PUSH1 0x1F NOT AND PUSH1 0x20 ADD PUSH2 0x2672 JUMP JUMPDEST SWAP1 POP DUP3 DUP2 MSTORE DUP4 DUP4 DUP4 ADD GT ISZERO PUSH2 0x1C1F JUMPI PUSH1 0x0 DUP1 REVERT JUMPDEST DUP3 DUP3 PUSH1 0x20 DUP4 ADD CALLDATACOPY PUSH1 0x0 PUSH1 0x20 DUP5 DUP4 ADD ADD MSTORE SWAP4 SWAP3 POP POP POP JUMP JUMPDEST DUP1 CALLDATALOAD PUSH1 0x1 PUSH1 0x1 PUSH1 0xA0 SHL SUB DUP2 AND DUP2 EQ PUSH2 0x5A1 JUMPI PUSH1 0x0 DUP1 REVERT JUMPDEST DUP1 CALLDATALOAD PUSH2 0xFFFF DUP2 AND DUP2 EQ PUSH2 0x5A1 JUMPI PUSH1 0x0 DUP1 REVERT JUMPDEST PUSH1 0x0 PUSH1 0x20 DUP3 DUP5 SUB SLT ISZERO PUSH2 0x1C70 JUMPI DUP1 DUP2 REVERT JUMPDEST PUSH2 0x10FA DUP3 PUSH2 0x1C36 JUMP JUMPDEST PUSH1 0x0 DUP1 PUSH1 0x40 DUP4 DUP6 SUB SLT ISZERO PUSH2 0x1C8B JUMPI DUP1 DUP2 REVERT JUMPDEST PUSH2 0x1C94 DUP4 PUSH2 0x1C36 JUMP JUMPDEST SWAP2 POP PUSH2 0x787 PUSH1 0x20 DUP5 ADD PUSH2 0x1C36 JUMP JUMPDEST PUSH1 0x0 DUP1 PUSH1 0x0 PUSH1 0x60 DUP5 DUP7 SUB SLT ISZERO PUSH2 0x1CB6 JUMPI DUP1 DUP2 REVERT JUMPDEST PUSH2 0x1CBF DUP5 PUSH2 0x1C36 JUMP JUMPDEST SWAP3 POP PUSH2 0x1CCD PUSH1 0x20 DUP6 ADD PUSH2 0x1C36 JUMP JUMPDEST SWAP2 POP PUSH1 0x40 DUP5 ADD CALLDATALOAD SWAP1 POP SWAP3 POP SWAP3 POP SWAP3 JUMP JUMPDEST PUSH1 0x0 DUP1 PUSH1 0x0 DUP1 PUSH1 0x80 DUP6 DUP8 SUB SLT ISZERO PUSH2 0x1CF2 JUMPI DUP1 DUP2 REVERT JUMPDEST PUSH2 0x1CFB DUP6 PUSH2 0x1C36 JUMP JUMPDEST SWAP4 POP PUSH2 0x1D09 PUSH1 0x20 DUP7 ADD PUSH2 0x1C36 JUMP JUMPDEST SWAP3 POP PUSH1 0x40 DUP6 ADD CALLDATALOAD SWAP2 POP PUSH1 0x60 DUP6 ADD CALLDATALOAD PUSH1 0x1 PUSH1 0x1 PUSH1 0x40 SHL SUB DUP2 GT ISZERO PUSH2 0x1D2A JUMPI DUP2 DUP3 REVERT JUMPDEST DUP6 ADD PUSH1 0x1F DUP2 ADD DUP8 SGT PUSH2 0x1D3A JUMPI DUP2 DUP3 REVERT JUMPDEST PUSH2 0x1D49 DUP8 DUP3 CALLDATALOAD PUSH1 0x20 DUP5 ADD PUSH2 0x1BDF JUMP JUMPDEST SWAP2 POP POP SWAP3 SWAP6 SWAP2 SWAP5 POP SWAP3 POP JUMP JUMPDEST PUSH1 0x0 DUP1 PUSH1 0x40 DUP4 DUP6 SUB SLT ISZERO PUSH2 0x1D67 JUMPI DUP2 DUP3 REVERT JUMPDEST PUSH2 0x1D70 DUP4 PUSH2 0x1C36 JUMP JUMPDEST SWAP2 POP PUSH1 0x20 DUP4 ADD CALLDATALOAD DUP1 ISZERO ISZERO DUP2 EQ PUSH2 0x1D84 JUMPI DUP2 DUP3 REVERT JUMPDEST DUP1 SWAP2 POP POP SWAP3 POP SWAP3 SWAP1 POP JUMP JUMPDEST PUSH1 0x0 DUP1 PUSH1 0x40 DUP4 DUP6 SUB SLT ISZERO PUSH2 0x1DA1 JUMPI DUP2 DUP3 REVERT JUMPDEST PUSH2 0x1DAA DUP4 PUSH2 0x1C36 JUMP JUMPDEST SWAP5 PUSH1 0x20 SWAP4 SWAP1 SWAP4 ADD CALLDATALOAD SWAP4 POP POP POP JUMP JUMPDEST PUSH1 0x0 PUSH1 0x20 DUP1 DUP4 DUP6 SUB SLT ISZERO PUSH2 0x1DCA JUMPI DUP2 DUP3 REVERT JUMPDEST DUP3 CALLDATALOAD PUSH1 0x1 PUSH1 0x1 PUSH1 0x40 SHL SUB DUP1 DUP3 GT ISZERO PUSH2 0x1DE0 JUMPI DUP4 DUP5 REVERT JUMPDEST DUP2 DUP6 ADD SWAP2 POP DUP6 PUSH1 0x1F DUP4 ADD SLT PUSH2 0x1DF3 JUMPI DUP4 DUP5 REVERT JUMPDEST DUP2 CALLDATALOAD DUP2 DUP2 GT ISZERO PUSH2 0x1E05 JUMPI PUSH2 0x1E05 PUSH2 0x2858 JUMP JUMPDEST DUP4 DUP2 MUL SWAP2 POP PUSH2 0x1E15 DUP5 DUP4 ADD PUSH2 0x2672 JUMP JUMPDEST DUP2 DUP2 MSTORE DUP5 DUP2 ADD SWAP1 DUP5 DUP7 ADD DUP5 DUP7 ADD DUP8 ADD DUP11 LT ISZERO PUSH2 0x1E2F JUMPI DUP8 DUP9 REVERT JUMPDEST DUP8 SWAP6 POP JUMPDEST DUP4 DUP7 LT ISZERO PUSH2 0x1E58 JUMPI PUSH2 0x1E44 DUP2 PUSH2 0x1C4D JUMP JUMPDEST DUP4 MSTORE PUSH1 0x1 SWAP6 SWAP1 SWAP6 ADD SWAP5 SWAP2 DUP7 ADD SWAP2 DUP7 ADD PUSH2 0x1E33 JUMP JUMPDEST POP SWAP9 SWAP8 POP POP POP POP POP POP POP POP JUMP JUMPDEST PUSH1 0x0 PUSH1 0x20 DUP3 DUP5 SUB SLT ISZERO PUSH2 0x1E76 JUMPI DUP1 DUP2 REVERT JUMPDEST DUP2 CALLDATALOAD PUSH2 0x10BA DUP2 PUSH2 0x286E JUMP JUMPDEST PUSH1 0x0 PUSH1 0x20 DUP3 DUP5 SUB SLT ISZERO PUSH2 0x1E92 JUMPI DUP1 DUP2 REVERT JUMPDEST DUP2 MLOAD PUSH2 0x10BA DUP2 PUSH2 0x286E JUMP JUMPDEST PUSH1 0x0 PUSH1 0x20 DUP3 DUP5 SUB SLT ISZERO PUSH2 0x1EAE JUMPI DUP1 DUP2 REVERT JUMPDEST DUP2 CALLDATALOAD PUSH1 0x1 PUSH1 0x1 PUSH1 0x40 SHL SUB DUP2 GT ISZERO PUSH2 0x1EC3 JUMPI DUP2 DUP3 REVERT JUMPDEST DUP3 ADD PUSH1 0x1F DUP2 ADD DUP5 SGT PUSH2 0x1ED3 JUMPI DUP2 DUP3 REVERT JUMPDEST PUSH2 0x158F DUP5 DUP3 CALLDATALOAD PUSH1 0x20 DUP5 ADD PUSH2 0x1BDF JUMP JUMPDEST PUSH1 0x0 PUSH1 0x20 DUP3 DUP5 SUB SLT ISZERO PUSH2 0x1EF3 JUMPI DUP1 DUP2 REVERT JUMPDEST PUSH2 0x10FA DUP3 PUSH2 0x1C4D JUMP JUMPDEST PUSH1 0x0 DUP1 PUSH1 0x40 DUP4 DUP6 SUB SLT ISZERO PUSH2 0x1F0E JUMPI DUP2 DUP3 REVERT JUMPDEST PUSH2 0x1F17 DUP4 PUSH2 0x1C4D JUMP JUMPDEST SWAP2 POP PUSH2 0x787 PUSH1 0x20 DUP5 ADD PUSH2 0x1C4D JUMP JUMPDEST PUSH1 0x0 PUSH1 0x20 DUP3 DUP5 SUB SLT ISZERO PUSH2 0x1F36 JUMPI DUP1 DUP2 REVERT JUMPDEST POP CALLDATALOAD SWAP2 SWAP1 POP JUMP JUMPDEST PUSH1 0x0 DUP1 PUSH1 0x40 DUP4 DUP6 SUB SLT ISZERO PUSH2 0x1F4F JUMPI DUP2 DUP3 REVERT JUMPDEST POP POP DUP1 CALLDATALOAD SWAP3 PUSH1 0x20 SWAP1 SWAP2 ADD CALLDATALOAD SWAP2 POP JUMP JUMPDEST PUSH1 0x0 DUP2 MLOAD DUP1 DUP5 MSTORE PUSH2 0x1F76 DUP2 PUSH1 0x20 DUP7 ADD PUSH1 0x20 DUP7 ADD PUSH2 0x273D JUMP JUMPDEST PUSH1 0x1F ADD PUSH1 0x1F NOT AND SWAP3 SWAP1 SWAP3 ADD PUSH1 0x20 ADD SWAP3 SWAP2 POP POP JUMP JUMPDEST PUSH1 0x0 DUP4 MLOAD PUSH2 0x1F9C DUP2 DUP5 PUSH1 0x20 DUP9 ADD PUSH2 0x273D JUMP JUMPDEST DUP4 MLOAD SWAP1 DUP4 ADD SWAP1 PUSH2 0x1FB0 DUP2 DUP4 PUSH1 0x20 DUP9 ADD PUSH2 0x273D JUMP JUMPDEST ADD SWAP5 SWAP4 POP POP POP POP JUMP JUMPDEST SWAP3 DUP4 MSTORE PUSH1 0x60 SWAP2 SWAP1 SWAP2 SHL PUSH1 0x1 PUSH1 0x1 PUSH1 0x60 SHL SUB NOT AND PUSH1 0x20 DUP4 ADD MSTORE PUSH1 0x34 DUP3 ADD MSTORE PUSH1 0x54 ADD SWAP1 JUMP JUMPDEST PUSH1 0x1 PUSH1 0x1 PUSH1 0xA0 SHL SUB SWAP2 SWAP1 SWAP2 AND DUP2 MSTORE PUSH1 0x20 ADD SWAP1 JUMP JUMPDEST PUSH1 0x1 PUSH1 0x1 PUSH1 0xA0 SHL SUB DUP6 DUP2 AND DUP3 MSTORE DUP5 AND PUSH1 0x20 DUP3 ADD MSTORE PUSH1 0x40 DUP2 ADD DUP4 SWAP1 MSTORE PUSH1 0x80 PUSH1 0x60 DUP3 ADD DUP2 SWAP1 MSTORE PUSH1 0x0 SWAP1 PUSH2 0x2023 SWAP1 DUP4 ADD DUP5 PUSH2 0x1F5E JUMP JUMPDEST SWAP7 SWAP6 POP POP POP POP POP POP JUMP JUMPDEST PUSH1 0x1 PUSH1 0x1 PUSH1 0xA0 SHL SUB SWAP3 SWAP1 SWAP3 AND DUP3 MSTORE PUSH1 0x20 DUP3 ADD MSTORE PUSH1 0x40 ADD SWAP1 JUMP JUMPDEST PUSH1 0x20 DUP1 DUP3 MSTORE DUP3 MLOAD DUP3 DUP3 ADD DUP2 SWAP1 MSTORE PUSH1 0x0 SWAP2 SWAP1 DUP5 DUP3 ADD SWAP1 PUSH1 0x40 DUP6 ADD SWAP1 DUP5 JUMPDEST DUP2 DUP2 LT ISZERO PUSH2 0x2082 JUMPI DUP4 MLOAD PUSH2 0xFFFF AND DUP4 MSTORE SWAP3 DUP5 ADD SWAP3 SWAP2 DUP5 ADD SWAP2 PUSH1 0x1 ADD PUSH2 0x2062 JUMP JUMPDEST POP SWAP1 SWAP7 SWAP6 POP POP POP POP POP POP JUMP JUMPDEST SWAP1 ISZERO ISZERO DUP2 MSTORE PUSH1 0x20 ADD SWAP1 JUMP JUMPDEST PUSH1 0x0 PUSH1 0x20 DUP3 MSTORE PUSH2 0x10FA PUSH1 0x20 DUP4 ADD DUP5 PUSH2 0x1F5E JUMP JUMPDEST PUSH1 0x20 DUP1 DUP3 MSTORE PUSH1 0x2B SWAP1 DUP3 ADD MSTORE PUSH32 0x416C7265616479206D696E746564206D617820616D6F756E7420666F72207468 PUSH1 0x40 DUP3 ADD MSTORE PUSH11 0x6973206164647265737321 PUSH1 0xA8 SHL PUSH1 0x60 DUP3 ADD MSTORE PUSH1 0x80 ADD SWAP1 JUMP JUMPDEST PUSH1 0x20 DUP1 DUP3 MSTORE PUSH1 0x32 SWAP1 DUP3 ADD MSTORE PUSH32 0x4552433732313A207472616E7366657220746F206E6F6E204552433732315265 PUSH1 0x40 DUP3 ADD MSTORE PUSH18 0x31B2B4BB32B91034B6B83632B6B2B73A32B9 PUSH1 0x71 SHL PUSH1 0x60 DUP3 ADD MSTORE PUSH1 0x80 ADD SWAP1 JUMP JUMPDEST PUSH1 0x20 DUP1 DUP3 MSTORE PUSH1 0x26 SWAP1 DUP3 ADD MSTORE PUSH32 0x4F776E61626C653A206E6577206F776E657220697320746865207A65726F2061 PUSH1 0x40 DUP3 ADD MSTORE PUSH6 0x646472657373 PUSH1 0xD0 SHL PUSH1 0x60 DUP3 ADD MSTORE PUSH1 0x80 ADD SWAP1 JUMP JUMPDEST PUSH1 0x20 DUP1 DUP3 MSTORE PUSH1 0x1C SWAP1 DUP3 ADD MSTORE PUSH28 0x115490CDCC8C4E881D1BDAD95B88185B1C9958591E481B5A5B9D1959 PUSH1 0x22 SHL PUSH1 0x40 DUP3 ADD MSTORE PUSH1 0x60 ADD SWAP1 JUMP JUMPDEST PUSH1 0x20 DUP1 DUP3 MSTORE PUSH1 0x24 SWAP1 DUP3 ADD MSTORE PUSH32 0x4552433732313A207472616E7366657220746F20746865207A65726F20616464 PUSH1 0x40 DUP3 ADD MSTORE PUSH4 0x72657373 PUSH1 0xE0 SHL PUSH1 0x60 DUP3 ADD MSTORE PUSH1 0x80 ADD SWAP1 JUMP JUMPDEST PUSH1 0x20 DUP1 DUP3 MSTORE PUSH1 0x19 SWAP1 DUP3 ADD MSTORE PUSH25 0x22A9219B99189D1030B8383937BB32903A379031B0B63632B9 PUSH1 0x39 SHL PUSH1 0x40 DUP3 ADD MSTORE PUSH1 0x60 ADD SWAP1 JUMP JUMPDEST PUSH1 0x20 DUP1 DUP3 MSTORE PUSH1 0x2C SWAP1 DUP3 ADD MSTORE PUSH32 0x4552433732313A206F70657261746F7220717565727920666F72206E6F6E6578 PUSH1 0x40 DUP3 ADD MSTORE PUSH12 0x34B9BA32B73A103A37B5B2B7 PUSH1 0xA1 SHL PUSH1 0x60 DUP3 ADD MSTORE PUSH1 0x80 ADD SWAP1 JUMP JUMPDEST PUSH1 0x20 DUP1 DUP3 MSTORE PUSH1 0x1F SWAP1 DUP3 ADD MSTORE PUSH32 0x476976656177617920746F6B656E73206E6F74206D696E746564207965742100 PUSH1 0x40 DUP3 ADD MSTORE PUSH1 0x60 ADD SWAP1 JUMP JUMPDEST PUSH1 0x20 DUP1 DUP3 MSTORE PUSH1 0x38 SWAP1 DUP3 ADD MSTORE PUSH32 0x4552433732313A20617070726F76652063616C6C6572206973206E6F74206F77 PUSH1 0x40 DUP3 ADD MSTORE PUSH24 0x1B995C881B9BDC88185C1C1C9BDD995908199BDC88185B1B PUSH1 0x42 SHL PUSH1 0x60 DUP3 ADD MSTORE PUSH1 0x80 ADD SWAP1 JUMP JUMPDEST PUSH1 0x20 DUP1 DUP3 MSTORE PUSH1 0x2A SWAP1 DUP3 ADD MSTORE PUSH32 0x4552433732313A2062616C616E636520717565727920666F7220746865207A65 PUSH1 0x40 DUP3 ADD MSTORE PUSH10 0x726F2061646472657373 PUSH1 0xB0 SHL PUSH1 0x60 DUP3 ADD MSTORE PUSH1 0x80 ADD SWAP1 JUMP JUMPDEST PUSH1 0x20 DUP1 DUP3 MSTORE PUSH1 0x29 SWAP1 DUP3 ADD MSTORE PUSH32 0x4552433732313A206F776E657220717565727920666F72206E6F6E6578697374 PUSH1 0x40 DUP3 ADD MSTORE PUSH9 0x32B73A103A37B5B2B7 PUSH1 0xB9 SHL PUSH1 0x60 DUP3 ADD MSTORE PUSH1 0x80 ADD SWAP1 JUMP JUMPDEST PUSH1 0x20 DUP1 DUP3 MSTORE DUP2 DUP2 ADD MSTORE PUSH32 0x4552433732313A206D696E7420746F20746865207A65726F2061646472657373 PUSH1 0x40 DUP3 ADD MSTORE PUSH1 0x60 ADD SWAP1 JUMP JUMPDEST PUSH1 0x20 DUP1 DUP3 MSTORE PUSH1 0x2C SWAP1 DUP3 ADD MSTORE PUSH32 0x4552433732313A20617070726F76656420717565727920666F72206E6F6E6578 PUSH1 0x40 DUP3 ADD MSTORE PUSH12 0x34B9BA32B73A103A37B5B2B7 PUSH1 0xA1 SHL PUSH1 0x60 DUP3 ADD MSTORE PUSH1 0x80 ADD SWAP1 JUMP JUMPDEST PUSH1 0x20 DUP1 DUP3 MSTORE DUP2 DUP2 ADD MSTORE PUSH32 0x4F776E61626C653A2063616C6C6572206973206E6F7420746865206F776E6572 PUSH1 0x40 DUP3 ADD MSTORE PUSH1 0x60 ADD SWAP1 JUMP JUMPDEST PUSH1 0x20 DUP1 DUP3 MSTORE PUSH1 0x29 SWAP1 DUP3 ADD MSTORE PUSH32 0x4552433732313A207472616E73666572206F6620746F6B656E20746861742069 PUSH1 0x40 DUP3 ADD MSTORE PUSH9 0x39903737BA1037BBB7 PUSH1 0xB9 SHL PUSH1 0x60 DUP3 ADD MSTORE PUSH1 0x80 ADD SWAP1 JUMP JUMPDEST PUSH1 0x20 DUP1 DUP3 MSTORE PUSH1 0x2F SWAP1 DUP3 ADD MSTORE PUSH32 0x4552433732314D657461646174613A2055524920717565727920666F72206E6F PUSH1 0x40 DUP3 ADD MSTORE PUSH15 0x3732BC34B9BA32B73A103A37B5B2B7 PUSH1 0x89 SHL PUSH1 0x60 DUP3 ADD MSTORE PUSH1 0x80 ADD SWAP1 JUMP JUMPDEST PUSH1 0x20 DUP1 DUP3 MSTORE PUSH1 0x21 SWAP1 DUP3 ADD MSTORE PUSH32 0x4552433732313A20617070726F76616C20746F2063757272656E74206F776E65 PUSH1 0x40 DUP3 ADD MSTORE PUSH1 0x39 PUSH1 0xF9 SHL PUSH1 0x60 DUP3 ADD MSTORE PUSH1 0x80 ADD SWAP1 JUMP JUMPDEST PUSH1 0x20 DUP1 DUP3 MSTORE PUSH1 0x31 SWAP1 DUP3 ADD MSTORE PUSH32 0x4552433732313A207472616E736665722063616C6C6572206973206E6F74206F PUSH1 0x40 DUP3 ADD MSTORE PUSH17 0x1DDB995C881B9BDC88185C1C1C9BDD9959 PUSH1 0x7A SHL PUSH1 0x60 DUP3 ADD MSTORE PUSH1 0x80 ADD SWAP1 JUMP JUMPDEST PUSH1 0x20 DUP1 DUP3 MSTORE DUP2 DUP2 ADD MSTORE PUSH32 0x416C6C206769766561776179204E46547320616C7265616479206D696E746564 PUSH1 0x40 DUP3 ADD MSTORE PUSH1 0x60 ADD SWAP1 JUMP JUMPDEST PUSH1 0x20 DUP1 DUP3 MSTORE PUSH1 0x13 SWAP1 DUP3 ADD MSTORE PUSH19 0x496E73756666696369656E742066756E647321 PUSH1 0x68 SHL PUSH1 0x40 DUP3 ADD MSTORE PUSH1 0x60 ADD SWAP1 JUMP JUMPDEST PUSH1 0x20 DUP1 DUP3 MSTORE PUSH1 0xF SWAP1 DUP3 ADD MSTORE PUSH15 0x4E6F20746F6B656E73206C65667421 PUSH1 0x88 SHL PUSH1 0x40 DUP3 ADD MSTORE PUSH1 0x60 ADD SWAP1 JUMP JUMPDEST PUSH1 0x20 DUP1 DUP3 MSTORE PUSH1 0x1D SWAP1 DUP3 ADD MSTORE PUSH32 0x4D617820746F6B656E7320616C726561647920706F70756C6174656421000000 PUSH1 0x40 DUP3 ADD MSTORE PUSH1 0x60 ADD SWAP1 JUMP JUMPDEST PUSH2 0xFFFF SWAP2 SWAP1 SWAP2 AND DUP2 MSTORE PUSH1 0x20 ADD SWAP1 JUMP JUMPDEST SWAP1 DUP2 MSTORE PUSH1 0x20 ADD SWAP1 JUMP JUMPDEST PUSH1 0xFF SWAP2 SWAP1 SWAP2 AND DUP2 MSTORE PUSH1 0x20 ADD SWAP1 JUMP JUMPDEST PUSH1 0x40 MLOAD DUP2 DUP2 ADD PUSH1 0x1 PUSH1 0x1 PUSH1 0x40 SHL SUB DUP2 GT DUP3 DUP3 LT OR ISZERO PUSH2 0x2693 JUMPI PUSH2 0x2693 PUSH2 0x2858 JUMP JUMPDEST PUSH1 0x40 MSTORE SWAP2 SWAP1 POP JUMP JUMPDEST PUSH1 0x0 PUSH2 0xFFFF DUP1 DUP4 AND DUP2 DUP6 AND DUP1 DUP4 SUB DUP3 GT ISZERO PUSH2 0x1FB0 JUMPI PUSH2 0x1FB0 PUSH2 0x282C JUMP JUMPDEST PUSH1 0x0 DUP3 NOT DUP3 GT ISZERO PUSH2 0x26CB JUMPI PUSH2 0x26CB PUSH2 0x282C JUMP JUMPDEST POP ADD SWAP1 JUMP JUMPDEST PUSH1 0x0 DUP3 PUSH2 0x26DF JUMPI PUSH2 0x26DF PUSH2 0x2842 JUMP JUMPDEST POP DIV SWAP1 JUMP JUMPDEST PUSH1 0x0 DUP2 PUSH1 0x0 NOT DIV DUP4 GT DUP3 ISZERO ISZERO AND ISZERO PUSH2 0x26FE JUMPI PUSH2 0x26FE PUSH2 0x282C JUMP JUMPDEST POP MUL SWAP1 JUMP JUMPDEST PUSH1 0x0 PUSH2 0xFFFF DUP4 DUP2 AND SWAP1 DUP4 AND DUP2 DUP2 LT ISZERO PUSH2 0x271E JUMPI PUSH2 0x271E PUSH2 0x282C JUMP JUMPDEST SUB SWAP4 SWAP3 POP POP POP JUMP JUMPDEST PUSH1 0x0 DUP3 DUP3 LT ISZERO PUSH2 0x2738 JUMPI PUSH2 0x2738 PUSH2 0x282C JUMP JUMPDEST POP SUB SWAP1 JUMP JUMPDEST PUSH1 0x0 JUMPDEST DUP4 DUP2 LT ISZERO PUSH2 0x2758 JUMPI DUP2 DUP2 ADD MLOAD DUP4 DUP3 ADD MSTORE PUSH1 0x20 ADD PUSH2 0x2740 JUMP JUMPDEST DUP4 DUP2 GT ISZERO PUSH2 0x102E JUMPI POP POP PUSH1 0x0 SWAP2 ADD MSTORE JUMP JUMPDEST PUSH1 0x0 DUP2 PUSH2 0x2778 JUMPI PUSH2 0x2778 PUSH2 0x282C JUMP JUMPDEST POP PUSH1 0x0 NOT ADD SWAP1 JUMP JUMPDEST PUSH1 0x2 DUP2 DIV PUSH1 0x1 DUP3 AND DUP1 PUSH2 0x2794 JUMPI PUSH1 0x7F DUP3 AND SWAP2 POP JUMPDEST PUSH1 0x20 DUP3 LT DUP2 EQ ISZERO PUSH2 0x27B5 JUMPI PUSH4 0x4E487B71 PUSH1 0xE0 SHL PUSH1 0x0 MSTORE PUSH1 0x22 PUSH1 0x4 MSTORE PUSH1 0x24 PUSH1 0x0 REVERT JUMPDEST POP SWAP2 SWAP1 POP JUMP JUMPDEST PUSH1 0x0 PUSH2 0xFFFF DUP1 DUP4 AND DUP2 DUP2 EQ ISZERO PUSH2 0x27D3 JUMPI PUSH2 0x27D3 PUSH2 0x282C JUMP JUMPDEST PUSH1 0x1 ADD SWAP4 SWAP3 POP POP POP JUMP JUMPDEST PUSH1 0x0 PUSH1 0x0 NOT DUP3 EQ ISZERO PUSH2 0x27F1 JUMPI PUSH2 0x27F1 PUSH2 0x282C JUMP JUMPDEST POP PUSH1 0x1 ADD SWAP1 JUMP JUMPDEST PUSH1 0x0 PUSH1 0xFF DUP3 AND PUSH1 0xFF DUP2 EQ ISZERO PUSH2 0x280F JUMPI PUSH2 0x280F PUSH2 0x282C JUMP JUMPDEST PUSH1 0x1 ADD SWAP3 SWAP2 POP POP JUMP JUMPDEST PUSH1 0x0 DUP3 PUSH2 0x2827 JUMPI PUSH2 0x2827 PUSH2 0x2842 JUMP JUMPDEST POP MOD SWAP1 JUMP JUMPDEST PUSH4 0x4E487B71 PUSH1 0xE0 SHL PUSH1 0x0 MSTORE PUSH1 0x11 PUSH1 0x4 MSTORE PUSH1 0x24 PUSH1 0x0 REVERT JUMPDEST PUSH4 0x4E487B71 PUSH1 0xE0 SHL PUSH1 0x0 MSTORE PUSH1 0x12 PUSH1 0x4 MSTORE PUSH1 0x24 PUSH1 0x0 REVERT JUMPDEST PUSH4 0x4E487B71 PUSH1 0xE0 SHL PUSH1 0x0 MSTORE PUSH1 0x41 PUSH1 0x4 MSTORE PUSH1 0x24 PUSH1 0x0 REVERT JUMPDEST PUSH1 0x1 PUSH1 0x1 PUSH1 0xE0 SHL SUB NOT DUP2 AND DUP2 EQ PUSH2 0xAF0 JUMPI PUSH1 0x0 DUP1 REVERT INVALID LOG2 PUSH5 0x6970667358 0x22 SLT KECCAK256 0xE4 0xEC DUP4 STOP 0xCF 0x5F TIMESTAMP 0x21 CALLDATALOAD 0xE6 ADD ORIGIN 0xB4 JUMP 0xBB GASLIMIT SMOD 0xD5 EQ 0xEF 0x5F PUSH18 0xD69EA7A848879754F01164736F6C63430008 STOP STOP CALLER PUSH10 0x7066733A2F2F516D5743 JUMP PUSH27 0x6E78326F66446B416647714D78485A4B3363357561616242785472 0x4D 0x4C PUSH3 0x616D66 PUSH5 0x4E4A313565 GAS 0x2F "
        },
        "gasEstimates": {
          "creation": {
            "codeDepositCost": "2085200",
            "executionCost": "infinite",
            "totalCost": "infinite"
          },
          "external": {
            "addressToMintCount(address)": "1626",
            "approve(address,uint256)": "infinite",
            "availableTokens(uint256)": "3847",
            "balanceOf(address)": "1667",
            "baseURI()": "infinite",
            "batchCreateGiveAway(uint16[])": "infinite",
            "create()": "infinite",
            "createGiveAway(uint16)": "infinite",
            "getApproved(uint256)": "2222",
            "getAvailableTokensCount()": "1183",
            "getAvailableTokensList()": "infinite",
            "getMintFee()": "infinite",
            "giveAwayCounter()": "1288",
            "isApprovedForAll(address,address)": "infinite",
            "maxMints()": "438",
            "name()": "infinite",
            "numLeft()": "1051",
            "owner()": "1136",
            "ownerOf(uint256)": "1586",
            "populateAvailableTokens(uint16,uint16)": "infinite",
            "renounceOwnership()": "infinite",
            "royaltyInfo(uint256,uint256)": "2312",
            "royaltyPercent()": "372",
            "safeTransferFrom(address,address,uint256)": "infinite",
            "safeTransferFrom(address,address,uint256,bytes)": "infinite",
            "setApprovalForAll(address,bool)": "infinite",
            "setBaseURI(string)": "infinite",
            "supportsInterface(bytes4)": "infinite",
            "symbol()": "infinite",
            "tokenURI(uint256)": "infinite",
            "totalPop()": "1167",
            "transferFrom(address,address,uint256)": "infinite",
            "transferOwnership(address)": "infinite",
            "withdraw()": "infinite"
          },
          "internal": {
            "_baseURI()": "infinite",
            "_msgSender()": "infinite"
          }
        },
        "methodIdentifiers": {
          "addressToMintCount(address)": "f75da1b3",
          "approve(address,uint256)": "095ea7b3",
          "availableTokens(uint256)": "ad64d068",
          "balanceOf(address)": "70a08231",
          "baseURI()": "6c0360eb",
          "batchCreateGiveAway(uint16[])": "441ca050",
          "create()": "efc81a8c",
          "createGiveAway(uint16)": "34660765",
          "getApproved(uint256)": "081812fc",
          "getAvailableTokensCount()": "2dcd52f2",
          "getAvailableTokensList()": "74894b79",
          "getMintFee()": "7a5caab3",
          "giveAwayCounter()": "c49b9249",
          "isApprovedForAll(address,address)": "e985e9c5",
          "maxMints()": "b6b6f0c3",
          "name()": "06fdde03",
          "numLeft()": "062f369d",
          "owner()": "8da5cb5b",
          "ownerOf(uint256)": "6352211e",
          "populateAvailableTokens(uint16,uint16)": "35fb9e13",
          "renounceOwnership()": "715018a6",
          "royaltyInfo(uint256,uint256)": "2a55205a",
          "royaltyPercent()": "9f67756d",
          "safeTransferFrom(address,address,uint256)": "42842e0e",
          "safeTransferFrom(address,address,uint256,bytes)": "b88d4fde",
          "setApprovalForAll(address,bool)": "a22cb465",
          "setBaseURI(string)": "55f804b3",
          "supportsInterface(bytes4)": "01ffc9a7",
          "symbol()": "95d89b41",
          "tokenURI(uint256)": "c87b56dd",
          "totalPop()": "9bf4337c",
          "transferFrom(address,address,uint256)": "23b872dd",
          "transferOwnership(address)": "f2fde38b",
          "withdraw()": "3ccfd60b"
        }
      },
      "storageLayout": {
        "storage": [
          {
            "astId": 129,
            "contract": "contracts/CryptoFlexPixelsNFT.sol:CryptoFlexPixelsNFT",
            "label": "_name",
            "offset": 0,
            "slot": "0",
            "type": "t_string_storage"
          },
          {
            "astId": 131,
            "contract": "contracts/CryptoFlexPixelsNFT.sol:CryptoFlexPixelsNFT",
            "label": "_symbol",
            "offset": 0,
            "slot": "1",
            "type": "t_string_storage"
          },
          {
            "astId": 135,
            "contract": "contracts/CryptoFlexPixelsNFT.sol:CryptoFlexPixelsNFT",
            "label": "_owners",
            "offset": 0,
            "slot": "2",
            "type": "t_mapping(t_uint256,t_address)"
          },
          {
            "astId": 139,
            "contract": "contracts/CryptoFlexPixelsNFT.sol:CryptoFlexPixelsNFT",
            "label": "_balances",
            "offset": 0,
            "slot": "3",
            "type": "t_mapping(t_address,t_uint256)"
          },
          {
            "astId": 143,
            "contract": "contracts/CryptoFlexPixelsNFT.sol:CryptoFlexPixelsNFT",
            "label": "_tokenApprovals",
            "offset": 0,
            "slot": "4",
            "type": "t_mapping(t_uint256,t_address)"
          },
          {
            "astId": 149,
            "contract": "contracts/CryptoFlexPixelsNFT.sol:CryptoFlexPixelsNFT",
            "label": "_operatorApprovals",
            "offset": 0,
            "slot": "5",
            "type": "t_mapping(t_address,t_mapping(t_address,t_bool))"
          },
          {
            "astId": 1637,
            "contract": "contracts/CryptoFlexPixelsNFT.sol:CryptoFlexPixelsNFT",
            "label": "_supportedInterfaces",
            "offset": 0,
            "slot": "6",
            "type": "t_mapping(t_bytes4,t_bool)"
          },
          {
            "astId": 2241,
            "contract": "contracts/CryptoFlexPixelsNFT.sol:CryptoFlexPixelsNFT",
            "label": "royaltyAddress",
            "offset": 0,
            "slot": "7",
            "type": "t_address"
          },
          {
            "astId": 2243,
            "contract": "contracts/CryptoFlexPixelsNFT.sol:CryptoFlexPixelsNFT",
            "label": "royaltyPercent",
            "offset": 0,
            "slot": "8",
            "type": "t_uint256"
          },
          {
            "astId": 7,
            "contract": "contracts/CryptoFlexPixelsNFT.sol:CryptoFlexPixelsNFT",
            "label": "_owner",
            "offset": 0,
            "slot": "9",
            "type": "t_address"
          },
          {
            "astId": 1768,
            "contract": "contracts/CryptoFlexPixelsNFT.sol:CryptoFlexPixelsNFT",
            "label": "addressToMintCount",
            "offset": 0,
            "slot": "10",
            "type": "t_mapping(t_address,t_uint8)"
          },
          {
            "astId": 1783,
            "contract": "contracts/CryptoFlexPixelsNFT.sol:CryptoFlexPixelsNFT",
            "label": "giveAwayCounter",
            "offset": 0,
            "slot": "11",
            "type": "t_uint16"
          },
          {
            "astId": 1786,
            "contract": "contracts/CryptoFlexPixelsNFT.sol:CryptoFlexPixelsNFT",
            "label": "totalPop",
            "offset": 2,
            "slot": "11",
            "type": "t_uint16"
          },
          {
            "astId": 1794,
            "contract": "contracts/CryptoFlexPixelsNFT.sol:CryptoFlexPixelsNFT",
            "label": "availableTokens",
            "offset": 0,
            "slot": "12",
            "type": "t_array(t_uint16)dyn_storage"
          },
          {
            "astId": 1797,
            "contract": "contracts/CryptoFlexPixelsNFT.sol:CryptoFlexPixelsNFT",
            "label": "numLeft",
            "offset": 0,
            "slot": "13",
            "type": "t_uint256"
          },
          {
            "astId": 1800,
            "contract": "contracts/CryptoFlexPixelsNFT.sol:CryptoFlexPixelsNFT",
            "label": "baseURI",
            "offset": 0,
            "slot": "14",
            "type": "t_string_storage"
          }
        ],
        "types": {
          "t_address": {
            "encoding": "inplace",
            "label": "address",
            "numberOfBytes": "20"
          },
          "t_array(t_uint16)dyn_storage": {
            "base": "t_uint16",
            "encoding": "dynamic_array",
            "label": "uint16[]",
            "numberOfBytes": "32"
          },
          "t_bool": {
            "encoding": "inplace",
            "label": "bool",
            "numberOfBytes": "1"
          },
          "t_bytes4": {
            "encoding": "inplace",
            "label": "bytes4",
            "numberOfBytes": "4"
          },
          "t_mapping(t_address,t_bool)": {
            "encoding": "mapping",
            "key": "t_address",
            "label": "mapping(address => bool)",
            "numberOfBytes": "32",
            "value": "t_bool"
          },
          "t_mapping(t_address,t_mapping(t_address,t_bool))": {
            "encoding": "mapping",
            "key": "t_address",
            "label": "mapping(address => mapping(address => bool))",
            "numberOfBytes": "32",
            "value": "t_mapping(t_address,t_bool)"
          },
          "t_mapping(t_address,t_uint256)": {
            "encoding": "mapping",
            "key": "t_address",
            "label": "mapping(address => uint256)",
            "numberOfBytes": "32",
            "value": "t_uint256"
          },
          "t_mapping(t_address,t_uint8)": {
            "encoding": "mapping",
            "key": "t_address",
            "label": "mapping(address => uint8)",
            "numberOfBytes": "32",
            "value": "t_uint8"
          },
          "t_mapping(t_bytes4,t_bool)": {
            "encoding": "mapping",
            "key": "t_bytes4",
            "label": "mapping(bytes4 => bool)",
            "numberOfBytes": "32",
            "value": "t_bool"
          },
          "t_mapping(t_uint256,t_address)": {
            "encoding": "mapping",
            "key": "t_uint256",
            "label": "mapping(uint256 => address)",
            "numberOfBytes": "32",
            "value": "t_address"
          },
          "t_string_storage": {
            "encoding": "bytes",
            "label": "string",
            "numberOfBytes": "32"
          },
          "t_uint16": {
            "encoding": "inplace",
            "label": "uint16",
            "numberOfBytes": "2"
          },
          "t_uint256": {
            "encoding": "inplace",
            "label": "uint256",
            "numberOfBytes": "32"
          },
          "t_uint8": {
            "encoding": "inplace",
            "label": "uint8",
            "numberOfBytes": "1"
          }
        }
      },
      "userdoc": {
        "kind": "user",
        "methods": {
          "isApprovedForAll(address,address)": {
            "notice": "Override isApprovedForAll to auto-approve OS's proxy contract"
          }
        },
        "version": 1
      }
    }
  }
}