{
  "_format": "hh-sol-artifact-1",
  "contractName": "CryptoFlexPixelsNFT",
  "sourceName": "contracts/CryptoFlexPixelsNFT.sol",
  "abi": [
    {
      "inputs": [],
      "stateMutability": "nonpayable",
      "type": "constructor"
    },
    {
      "anonymous": false,
      "inputs": [
        {
          "indexed": true,
          "internalType": "address",
          "name": "owner",
          "type": "address"
        },
        {
          "indexed": true,
          "internalType": "address",
          "name": "approved",
          "type": "address"
        },
        {
          "indexed": true,
          "internalType": "uint256",
          "name": "tokenId",
          "type": "uint256"
        }
      ],
      "name": "Approval",
      "type": "event"
    },
    {
      "anonymous": false,
      "inputs": [
        {
          "indexed": true,
          "internalType": "address",
          "name": "owner",
          "type": "address"
        },
        {
          "indexed": true,
          "internalType": "address",
          "name": "operator",
          "type": "address"
        },
        {
          "indexed": false,
          "internalType": "bool",
          "name": "approved",
          "type": "bool"
        }
      ],
      "name": "ApprovalForAll",
      "type": "event"
    },
    {
      "anonymous": false,
      "inputs": [
        {
          "indexed": true,
          "internalType": "address",
          "name": "previousOwner",
          "type": "address"
        },
        {
          "indexed": true,
          "internalType": "address",
          "name": "newOwner",
          "type": "address"
        }
      ],
      "name": "OwnershipTransferred",
      "type": "event"
    },
    {
      "anonymous": false,
      "inputs": [
        {
          "indexed": true,
          "internalType": "address",
          "name": "from",
          "type": "address"
        },
        {
          "indexed": true,
          "internalType": "address",
          "name": "to",
          "type": "address"
        },
        {
          "indexed": true,
          "internalType": "uint256",
          "name": "tokenId",
          "type": "uint256"
        }
      ],
      "name": "Transfer",
      "type": "event"
    },
    {
      "anonymous": false,
      "inputs": [
        {
          "indexed": true,
          "internalType": "address",
          "name": "createdBy",
          "type": "address"
        },
        {
          "indexed": true,
          "internalType": "uint256",
          "name": "tokenId",
          "type": "uint256"
        },
        {
          "indexed": true,
          "internalType": "uint256",
          "name": "tokensLeft",
          "type": "uint256"
        }
      ],
      "name": "createdGiveAwayNFT",
      "type": "event"
    },
    {
      "anonymous": false,
      "inputs": [
        {
          "indexed": true,
          "internalType": "address",
          "name": "createdBy",
          "type": "address"
        },
        {
          "indexed": true,
          "internalType": "uint256",
          "name": "tokenId",
          "type": "uint256"
        },
        {
          "indexed": true,
          "internalType": "uint256",
          "name": "tokensLeft",
          "type": "uint256"
        }
      ],
      "name": "createdRandomNFT",
      "type": "event"
    },
    {
      "inputs": [
        {
          "internalType": "address",
          "name": "",
          "type": "address"
        }
      ],
      "name": "addressToMintCount",
      "outputs": [
        {
          "internalType": "uint8",
          "name": "",
          "type": "uint8"
        }
      ],
      "stateMutability": "view",
      "type": "function"
    },
    {
      "inputs": [
        {
          "internalType": "address",
          "name": "to",
          "type": "address"
        },
        {
          "internalType": "uint256",
          "name": "tokenId",
          "type": "uint256"
        }
      ],
      "name": "approve",
      "outputs": [],
      "stateMutability": "nonpayable",
      "type": "function"
    },
    {
      "inputs": [
        {
          "internalType": "uint256",
          "name": "",
          "type": "uint256"
        }
      ],
      "name": "availableTokens",
      "outputs": [
        {
          "internalType": "uint16",
          "name": "",
          "type": "uint16"
        }
      ],
      "stateMutability": "view",
      "type": "function"
    },
    {
      "inputs": [
        {
          "internalType": "address",
          "name": "owner",
          "type": "address"
        }
      ],
      "name": "balanceOf",
      "outputs": [
        {
          "internalType": "uint256",
          "name": "",
          "type": "uint256"
        }
      ],
      "stateMutability": "view",
      "type": "function"
    },
    {
      "inputs": [],
      "name": "baseURI",
      "outputs": [
        {
          "internalType": "string",
          "name": "",
          "type": "string"
        }
      ],
      "stateMutability": "view",
      "type": "function"
    },
    {
      "inputs": [
        {
          "internalType": "uint16[]",
          "name": "tokenIds",
          "type": "uint16[]"
        }
      ],
      "name": "batchCreateGiveAway",
      "outputs": [],
      "stateMutability": "nonpayable",
      "type": "function"
    },
    {
      "inputs": [],
      "name": "create",
      "outputs": [
        {
          "internalType": "uint256",
          "name": "",
          "type": "uint256"
        }
      ],
      "stateMutability": "payable",
      "type": "function"
    },
    {
      "inputs": [
        {
          "internalType": "uint16",
          "name": "tokenId",
          "type": "uint16"
        }
      ],
      "name": "createGiveAway",
      "outputs": [],
      "stateMutability": "nonpayable",
      "type": "function"
    },
    {
      "inputs": [
        {
          "internalType": "uint256",
          "name": "tokenId",
          "type": "uint256"
        }
      ],
      "name": "getApproved",
      "outputs": [
        {
          "internalType": "address",
          "name": "",
          "type": "address"
        }
      ],
      "stateMutability": "view",
      "type": "function"
    },
    {
      "inputs": [],
      "name": "getAvailableTokensCount",
      "outputs": [
        {
          "internalType": "uint256",
          "name": "",
          "type": "uint256"
        }
      ],
      "stateMutability": "view",
      "type": "function"
    },
    {
      "inputs": [],
      "name": "getAvailableTokensList",
      "outputs": [
        {
          "internalType": "uint16[]",
          "name": "",
          "type": "uint16[]"
        }
      ],
      "stateMutability": "view",
      "type": "function"
    },
    {
      "inputs": [],
      "name": "getMintFee",
      "outputs": [
        {
          "internalType": "uint256",
          "name": "",
          "type": "uint256"
        }
      ],
      "stateMutability": "view",
      "type": "function"
    },
    {
      "inputs": [],
      "name": "giveAwayCounter",
      "outputs": [
        {
          "internalType": "uint16",
          "name": "",
          "type": "uint16"
        }
      ],
      "stateMutability": "view",
      "type": "function"
    },
    {
      "inputs": [
        {
          "internalType": "address",
          "name": "_owner",
          "type": "address"
        },
        {
          "internalType": "address",
          "name": "_operator",
          "type": "address"
        }
      ],
      "name": "isApprovedForAll",
      "outputs": [
        {
          "internalType": "bool",
          "name": "isOperator",
          "type": "bool"
        }
      ],
      "stateMutability": "view",
      "type": "function"
    },
    {
      "inputs": [],
      "name": "maxMints",
      "outputs": [
        {
          "internalType": "uint8",
          "name": "",
          "type": "uint8"
        }
      ],
      "stateMutability": "view",
      "type": "function"
    },
    {
      "inputs": [],
      "name": "name",
      "outputs": [
        {
          "internalType": "string",
          "name": "",
          "type": "string"
        }
      ],
      "stateMutability": "view",
      "type": "function"
    },
    {
      "inputs": [],
      "name": "numLeft",
      "outputs": [
        {
          "internalType": "uint256",
          "name": "",
          "type": "uint256"
        }
      ],
      "stateMutability": "view",
      "type": "function"
    },
    {
      "inputs": [],
      "name": "owner",
      "outputs": [
        {
          "internalType": "address",
          "name": "",
          "type": "address"
        }
      ],
      "stateMutability": "view",
      "type": "function"
    },
    {
      "inputs": [
        {
          "internalType": "uint256",
          "name": "tokenId",
          "type": "uint256"
        }
      ],
      "name": "ownerOf",
      "outputs": [
        {
          "internalType": "address",
          "name": "",
          "type": "address"
        }
      ],
      "stateMutability": "view",
      "type": "function"
    },
    {
      "inputs": [
        {
          "internalType": "uint16",
          "name": "_start",
          "type": "uint16"
        },
        {
          "internalType": "uint16",
          "name": "_end",
          "type": "uint16"
        }
      ],
      "name": "populateAvailableTokens",
      "outputs": [],
      "stateMutability": "nonpayable",
      "type": "function"
    },
    {
      "inputs": [],
      "name": "renounceOwnership",
      "outputs": [],
      "stateMutability": "nonpayable",
      "type": "function"
    },
    {
      "inputs": [
        {
          "internalType": "uint256",
          "name": "_tokenId",
          "type": "uint256"
        },
        {
          "internalType": "uint256",
          "name": "_salePrice",
          "type": "uint256"
        }
      ],
      "name": "royaltyInfo",
      "outputs": [
        {
          "internalType": "address",
          "name": "receiver",
          "type": "address"
        },
        {
          "internalType": "uint256",
          "name": "royaltyAmount",
          "type": "uint256"
        }
      ],
      "stateMutability": "view",
      "type": "function"
    },
    {
      "inputs": [],
      "name": "royaltyPercent",
      "outputs": [
        {
          "internalType": "uint8",
          "name": "",
          "type": "uint8"
        }
      ],
      "stateMutability": "view",
      "type": "function"
    },
    {
      "inputs": [
        {
          "internalType": "address",
          "name": "from",
          "type": "address"
        },
        {
          "internalType": "address",
          "name": "to",
          "type": "address"
        },
        {
          "internalType": "uint256",
          "name": "tokenId",
          "type": "uint256"
        }
      ],
      "name": "safeTransferFrom",
      "outputs": [],
      "stateMutability": "nonpayable",
      "type": "function"
    },
    {
      "inputs": [
        {
          "internalType": "address",
          "name": "from",
          "type": "address"
        },
        {
          "internalType": "address",
          "name": "to",
          "type": "address"
        },
        {
          "internalType": "uint256",
          "name": "tokenId",
          "type": "uint256"
        },
        {
          "internalType": "bytes",
          "name": "_data",
          "type": "bytes"
        }
      ],
      "name": "safeTransferFrom",
      "outputs": [],
      "stateMutability": "nonpayable",
      "type": "function"
    },
    {
      "inputs": [
        {
          "internalType": "address",
          "name": "operator",
          "type": "address"
        },
        {
          "internalType": "bool",
          "name": "approved",
          "type": "bool"
        }
      ],
      "name": "setApprovalForAll",
      "outputs": [],
      "stateMutability": "nonpayable",
      "type": "function"
    },
    {
      "inputs": [
        {
          "internalType": "string",
          "name": "_newBaseURI",
          "type": "string"
        }
      ],
      "name": "setBaseURI",
      "outputs": [],
      "stateMutability": "nonpayable",
      "type": "function"
    },
    {
      "inputs": [
        {
          "internalType": "bytes4",
          "name": "interfaceId",
          "type": "bytes4"
        }
      ],
      "name": "supportsInterface",
      "outputs": [
        {
          "internalType": "bool",
          "name": "",
          "type": "bool"
        }
      ],
      "stateMutability": "view",
      "type": "function"
    },
    {
      "inputs": [],
      "name": "symbol",
      "outputs": [
        {
          "internalType": "string",
          "name": "",
          "type": "string"
        }
      ],
      "stateMutability": "view",
      "type": "function"
    },
    {
      "inputs": [
        {
          "internalType": "uint256",
          "name": "tokenId",
          "type": "uint256"
        }
      ],
      "name": "tokenURI",
      "outputs": [
        {
          "internalType": "string",
          "name": "",
          "type": "string"
        }
      ],
      "stateMutability": "view",
      "type": "function"
    },
    {
      "inputs": [],
      "name": "totalPop",
      "outputs": [
        {
          "internalType": "uint16",
          "name": "",
          "type": "uint16"
        }
      ],
      "stateMutability": "view",
      "type": "function"
    },
    {
      "inputs": [
        {
          "internalType": "address",
          "name": "from",
          "type": "address"
        },
        {
          "internalType": "address",
          "name": "to",
          "type": "address"
        },
        {
          "internalType": "uint256",
          "name": "tokenId",
          "type": "uint256"
        }
      ],
      "name": "transferFrom",
      "outputs": [],
      "stateMutability": "nonpayable",
      "type": "function"
    },
    {
      "inputs": [
        {
          "internalType": "address",
          "name": "newOwner",
          "type": "address"
        }
      ],
      "name": "transferOwnership",
      "outputs": [],
      "stateMutability": "nonpayable",
      "type": "function"
    },
    {
      "inputs": [],
      "name": "withdraw",
      "outputs": [],
      "stateMutability": "payable",
      "type": "function"
    }
  ],
  "bytecode": "0x600b805463ffffffff1916905561271060808181526204e2a06040529060a06204e20080368337505081516200003d92600c925060200190620002a8565b50612710600d5560405180606001604052806036815260200162002d2a6036913980516200007491600e9160209091019062000358565b503480156200008257600080fd5b50604080518082018252601081526f43727970746f466c6578506978656c7360801b60208083019182528351808501909452600684526510d19413919560d21b908401528151919291620000d99160009162000358565b508051620000ef90600190602084019062000358565b5050506200010c620001066200014b60201b60201c565b62000168565b6200011e63152a902d60e11b620001ba565b6200012f62357ab560e91b620001ba565b620001456200013d62000215565b600562000224565b62000460565b6000620001626200024a60201b620013eb1760201c565b90505b90565b600980546001600160a01b038381166001600160a01b0319831681179093556040519116919082907f8be0079c531659141344cd1fd0a4f28419497f9722a3daafe3b4186f6b6457e090600090a35050565b6001600160e01b03198082161415620001f05760405162461bcd60e51b8152600401620001e790620003ec565b60405180910390fd5b6001600160e01b0319166000908152600660205260409020805460ff19166001179055565b6009546001600160a01b031690565b600780546001600160a01b0319166001600160a01b039390931692909217909155600855565b600033301415620002a357600080368080601f0160208091040260200160405190810160405280939291908181526020018383808284376000920191909152505050503601516001600160a01b03169150620001659050565b503390565b82805482825590600052602060002090600f01601090048101928215620003465791602002820160005b838211156200031457835183826101000a81548161ffff021916908361ffff1602179055509260200192600201602081600101049283019260010302620002d2565b8015620003445782816101000a81549061ffff021916905560020160208160010104928301926001030262000314565b505b5062000354929150620003d5565b5090565b828054620003669062000423565b90600052602060002090601f0160209004810192826200038a576000855562000346565b82601f10620003a557805160ff191683800117855562000346565b8280016001018555821562000346579182015b8281111562000346578251825591602001919060010190620003b8565b5b80821115620003545760008155600101620003d6565b6020808252601c908201527f4552433136353a20696e76616c696420696e7465726661636520696400000000604082015260600190565b6002810460018216806200043857607f821691505b602082108114156200045a57634e487b7160e01b600052602260045260246000fd5b50919050565b6128ba80620004706000396000f3fe6080604052600436106101995760003560e01c8063715018a6116100dd578063715018a6146103c757806374894b79146103dc5780637a5caab3146103fe5780638da5cb5b1461041357806395d89b41146104285780639bf4337c1461043d5780639f67756d1461045f578063a22cb46514610481578063ad64d068146104a1578063b6b6f0c3146104c1578063b88d4fde146104d6578063c49b9249146104f6578063c87b56dd1461050b578063e985e9c51461052b578063efc81a8c1461054b578063f2fde38b14610553578063f75da1b31461057357610199565b806301ffc9a71461019e578063062f369d146101d457806306fdde03146101f6578063081812fc14610218578063095ea7b31461024557806323b872dd146102675780632a55205a146102875780632dcd52f2146102b557806334660765146102ca57806335fb9e13146102ea5780633ccfd60b1461030a57806342842e0e14610312578063441ca0501461033257806355f804b3146103525780636352211e146103725780636c0360eb1461039257806370a08231146103a7575b600080fd5b3480156101aa57600080fd5b506101be6101b9366004611e65565b610593565b6040516101cb919061208e565b60405180910390f35b3480156101e057600080fd5b506101e96105a6565b6040516101cb919061265b565b34801561020257600080fd5b5061020b6105ac565b6040516101cb9190612099565b34801561022457600080fd5b50610238610233366004611f25565b61063f565b6040516101cb9190611fdc565b34801561025157600080fd5b50610265610260366004611d8f565b61068b565b005b34801561027357600080fd5b50610265610282366004611ca2565b610723565b34801561029357600080fd5b506102a76102a2366004611f3d565b61075b565b6040516101cb92919061202d565b3480156102c157600080fd5b506101e9610790565b3480156102d657600080fd5b506102656102e5366004611ee2565b610796565b3480156102f657600080fd5b50610265610305366004611efc565b61093b565b610265610a71565b34801561031e57600080fd5b5061026561032d366004611ca2565b610af3565b34801561033e57600080fd5b5061026561034d366004611db8565b610b0e565b34801561035e57600080fd5b5061026561036d366004611e9d565b610b9f565b34801561037e57600080fd5b5061023861038d366004611f25565b610bf1565b34801561039e57600080fd5b5061020b610c26565b3480156103b357600080fd5b506101e96103c2366004611c5f565b610cb4565b3480156103d357600080fd5b50610265610cf8565b3480156103e857600080fd5b506103f1610d43565b6040516101cb9190612046565b34801561040a57600080fd5b506101e9610e39565b34801561041f57600080fd5b50610238610eb7565b34801561043457600080fd5b5061020b610ec6565b34801561044957600080fd5b50610452610ed5565b6040516101cb919061264c565b34801561046b57600080fd5b50610474610ee5565b6040516101cb9190612664565b34801561048d57600080fd5b5061026561049c366004611d55565b610eea565b3480156104ad57600080fd5b506104526104bc366004611f25565b610fb8565b3480156104cd57600080fd5b50610474610ff0565b3480156104e257600080fd5b506102656104f1366004611cdd565b610ff5565b34801561050257600080fd5b50610452611034565b34801561051757600080fd5b5061020b610526366004611f25565b61103e565b34801561053757600080fd5b506101be610546366004611c79565b6110c1565b6101e9611103565b34801561055f57600080fd5b5061026561056e366004611c5f565b611368565b34801561057f57600080fd5b5061047461058e366004611c5f565b6113d6565b600061059e82611447565b90505b919050565b600d5481565b6060600080546105bb90612780565b80601f01602080910402602001604051908101604052809291908181526020018280546105e790612780565b80156106345780601f1061060957610100808354040283529160200191610634565b820191906000526020600020905b81548152906001019060200180831161061757829003601f168201915b505050505090505b90565b600061064a82611478565b61066f5760405162461bcd60e51b8152600401610666906123df565b60405180910390fd5b506000908152600460205260409020546001600160a01b031690565b600061069682610bf1565b9050806001600160a01b0316836001600160a01b031614156106ca5760405162461bcd60e51b8152600401610666906124f8565b806001600160a01b03166106dc611495565b6001600160a01b031614806106f857506106f881610546611495565b6107145760405162461bcd60e51b8152600401610666906122bf565b61071e83836114a4565b505050565b61073461072e611495565b82611512565b6107505760405162461bcd60e51b815260040161066690612539565b61071e838383611597565b6007546008546001600160a01b039091169060009060649061077d90856126e4565b61078791906126d0565b90509250929050565b600d5490565b61079e611495565b6001600160a01b03166107af610eb7565b6001600160a01b0316146107d55760405162461bcd60e51b81526004016106669061242b565b600b5461012c61ffff909116106107fe5760405162461bcd60e51b81526004016106669061258a565b610813610809610eb7565b8261ffff166116c4565b600d805490600061082383612769565b9190505550600c600d548154811061084b57634e487b7160e01b600052603260045260246000fd5b60009182526020909120601082040154600f9091166002026101000a900461ffff16600c61087a600184612703565b61ffff168154811061089c57634e487b7160e01b600052603260045260246000fd5b60009182526020822060108204018054600f9092166002026101000a61ffff818102199093169483160293909317909255600b805490921691906108df836127bb565b91906101000a81548161ffff021916908361ffff16021790555050600d548161ffff16336001600160a01b03167f8587227cba5e4c595b198905190a948a31044ca1904827973a8763a7ab31ccbf60405160405180910390a450565b610943611495565b6001600160a01b0316610954610eb7565b6001600160a01b03161461097a5760405162461bcd60e51b81526004016106669061242b565b600b54829061099490839062010000900461ffff1661269b565b61099e9190612703565b6109a990600161269b565b600b805463ffff000019166201000061ffff93841681029190911791829055612710910490911611156109ee5760405162461bcd60e51b815260040161066690612615565b815b8161ffff168161ffff161161071e5780600c610a0d600183612703565b61ffff1681548110610a2f57634e487b7160e01b600052603260045260246000fd5b90600052602060002090601091828204019190066002026101000a81548161ffff021916908361ffff1602179055508080610a69906127bb565b9150506109f0565b610a79611495565b6001600160a01b0316610a8a610eb7565b6001600160a01b031614610ab05760405162461bcd60e51b81526004016106669061242b565b610ab8610eb7565b6001600160a01b03166108fc479081150290604051600060405180830381858888f19350505050158015610af0573d6000803e3d6000fd5b50565b61071e83838360405180602001604052806000815250610ff5565b610b16611495565b6001600160a01b0316610b27610eb7565b6001600160a01b031614610b4d5760405162461bcd60e51b81526004016106669061242b565b60005b8151811015610b9b57610b89828281518110610b7c57634e487b7160e01b600052603260045260246000fd5b6020026020010151610796565b80610b93816127dd565b915050610b50565b5050565b610ba7611495565b6001600160a01b0316610bb8610eb7565b6001600160a01b031614610bde5760405162461bcd60e51b81526004016106669061242b565b8051610b9b90600e906020840190611b46565b6000818152600260205260408120546001600160a01b03168061059e5760405162461bcd60e51b815260040161066690612361565b600e8054610c3390612780565b80601f0160208091040260200160405190810160405280929190818152602001828054610c5f90612780565b8015610cac5780601f10610c8157610100808354040283529160200191610cac565b820191906000526020600020905b815481529060010190602001808311610c8f57829003601f168201915b505050505081565b60006001600160a01b038216610cdc5760405162461bcd60e51b815260040161066690612317565b506001600160a01b031660009081526003602052604090205490565b610d00611495565b6001600160a01b0316610d11610eb7565b6001600160a01b031614610d375760405162461bcd60e51b81526004016106669061242b565b610d4160006116de565b565b600d546060906000816001600160401b03811115610d7157634e487b7160e01b600052604160045260246000fd5b604051908082528060200260200182016040528015610d9a578160200160208202803683370190505b50905060005b82811015610e3257600c8181548110610dc957634e487b7160e01b600052603260045260246000fd5b90600052602060002090601091828204019190066002029054906101000a900461ffff16828281518110610e0d57634e487b7160e01b600052603260045260246000fd5b61ffff9092166020928302919091019091015280610e2a816127dd565b915050610da0565b5091505090565b600d546000906125e4811115610e615760405162461bcd60e51b815260040161066690612288565b6722b1c8c1227a0000681b1ae4d6e2ef5000006000826125e3610e848285612726565b610e90876125e4612726565b610e9a91906126e4565b610ea491906126d0565b610eae91906126b8565b94505050505090565b6009546001600160a01b031690565b6060600180546105bb90612780565b600b5462010000900461ffff1681565b600581565b610ef2611495565b6001600160a01b0316826001600160a01b03161415610f235760405162461bcd60e51b815260040161066690612209565b8060056000610f30611495565b6001600160a01b03908116825260208083019390935260409182016000908120918716808252919093529120805460ff191692151592909217909155610f74611495565b6001600160a01b03167f17307eab39ab6107e8899845ad3d59bd9653f200f220920489ca2b5937696c3183604051610fac919061208e565b60405180910390a35050565b600c8181548110610fc857600080fd5b9060005260206000209060109182820401919006600202915054906101000a900461ffff1681565b601481565b611006611000611495565b83611512565b6110225760405162461bcd60e51b815260040161066690612539565b61102e84848484611730565b50505050565b600b5461ffff1681565b606061104982611478565b6110655760405162461bcd60e51b8152600401610666906124a9565b600061106f611763565b9050600081511161108f57604051806020016040528060008152506110ba565b8061109984611772565b6040516020016110aa929190611f8a565b6040516020818303038152906040525b9392505050565b60006001600160a01b0382167358807bad0b376efc12f5ad86aac70e78ed67deae14156110f0575060016110fd565b6110fa838361188c565b90505b92915050565b336000908152600a6020526040812054601460ff909116106111375760405162461bcd60e51b8152600401610666906120ac565b6000600d54116111595760405162461bcd60e51b8152600401610666906125ec565b6125e4600d54111561117d5760405162461bcd60e51b815260040161066690612288565b611185610e39565b3410156111a45760405162461bcd60e51b8152600401610666906125bf565b6000600d544233600d546040516020016111c093929190611fb9565b6040516020818303038152906040528051906020012060001c6111e39190612818565b90506000600c828154811061120857634e487b7160e01b600052603260045260246000fd5b60009182526020909120601082040154600f9091166002026101000a900461ffff16905061123633826116c4565b600c6001600d546112479190612726565b8154811061126557634e487b7160e01b600052603260045260246000fd5b90600052602060002090601091828204019190066002029054906101000a900461ffff16600c83815481106112aa57634e487b7160e01b600052603260045260246000fd5b90600052602060002090601091828204019190066002026101000a81548161ffff021916908361ffff160217905550600d60008154809291906112ec90612769565b9091555050336000908152600a60205260408120805460ff169161130f836127f8565b91906101000a81548160ff021916908360ff16021790555050600d5481336001600160a01b03167fe9d74c069bdd089c51c59f87e56dd8a7c35a793fdd64890c9178b516fc43379260405160405180910390a491505090565b611370611495565b6001600160a01b0316611381610eb7565b6001600160a01b0316146113a75760405162461bcd60e51b81526004016106669061242b565b6001600160a01b0381166113cd5760405162461bcd60e51b815260040161066690612149565b610af0816116de565b600a6020526000908152604090205460ff1681565b60003330141561144257600080368080601f0160208091040260200160405190810160405280939291908181526020018383808284376000920191909152505050503601516001600160a01b0316915061063c9050565b503390565b6000611452826118ba565b8061059e5750506001600160e01b03191660009081526006602052604090205460ff1690565b6000908152600260205260409020546001600160a01b0316151590565b600061149f6113eb565b905090565b600081815260046020526040902080546001600160a01b0319166001600160a01b03841690811790915581906114d982610bf1565b6001600160a01b03167f8c5be1e5ebec7d5bd14f71427d1e84f3dd0314c0f7b2291e5b200ac8c7c3b92560405160405180910390a45050565b600061151d82611478565b6115395760405162461bcd60e51b81526004016106669061223c565b600061154483610bf1565b9050806001600160a01b0316846001600160a01b0316148061157f5750836001600160a01b03166115748461063f565b6001600160a01b0316145b8061158f575061158f81856110c1565b949350505050565b826001600160a01b03166115aa82610bf1565b6001600160a01b0316146115d05760405162461bcd60e51b815260040161066690612460565b6001600160a01b0382166115f65760405162461bcd60e51b8152600401610666906121c5565b61160183838361071e565b61160c6000826114a4565b6001600160a01b0383166000908152600360205260408120805460019290611635908490612726565b90915550506001600160a01b03821660009081526003602052604081208054600192906116639084906126b8565b909155505060008181526002602052604080822080546001600160a01b0319166001600160a01b0386811691821790925591518493918716917fddf252ad1be2c89b69c2b068fc378daa952ba7f163c4a11628f55a4df523b3ef91a4505050565b610b9b8282604051806020016040528060008152506118fa565b600980546001600160a01b038381166001600160a01b0319831681179093556040519116919082907f8be0079c531659141344cd1fd0a4f28419497f9722a3daafe3b4186f6b6457e090600090a35050565b61173b848484611597565b6117478484848461192d565b61102e5760405162461bcd60e51b8152600401610666906120f7565b6060600e80546105bb90612780565b60608161179757506040805180820190915260018152600360fc1b60208201526105a1565b8160005b81156117c157806117ab816127dd565b91506117ba9050600a836126d0565b915061179b565b6000816001600160401b038111156117e957634e487b7160e01b600052604160045260246000fd5b6040519080825280601f01601f191660200182016040528015611813576020820181803683370190505b5090505b841561158f57611828600183612726565b9150611835600a86612818565b6118409060306126b8565b60f81b81838151811061186357634e487b7160e01b600052603260045260246000fd5b60200101906001600160f81b031916908160001a905350611885600a866126d0565b9450611817565b6001600160a01b03918216600090815260056020908152604080832093909416825291909152205460ff1690565b60006001600160e01b031982166380ac58cd60e01b14806118eb57506001600160e01b03198216635b5e139f60e01b145b8061059e575061059e82611a48565b6119048383611a61565b611911600084848461192d565b61071e5760405162461bcd60e51b8152600401610666906120f7565b6000611941846001600160a01b0316611b40565b15611a3d57836001600160a01b031663150b7a0261195d611495565b8786866040518563ffffffff1660e01b815260040161197f9493929190611ff0565b602060405180830381600087803b15801561199957600080fd5b505af19250505080156119c9575060408051601f3d908101601f191682019092526119c691810190611e81565b60015b611a23573d8080156119f7576040519150601f19603f3d011682016040523d82523d6000602084013e6119fc565b606091505b508051611a1b5760405162461bcd60e51b8152600401610666906120f7565b805181602001fd5b6001600160e01b031916630a85bd0160e11b14905061158f565b506001949350505050565b6001600160e01b031981166301ffc9a760e01b14919050565b6001600160a01b038216611a875760405162461bcd60e51b8152600401610666906123aa565b611a9081611478565b15611aad5760405162461bcd60e51b81526004016106669061218f565b611ab96000838361071e565b6001600160a01b0382166000908152600360205260408120805460019290611ae29084906126b8565b909155505060008181526002602052604080822080546001600160a01b0319166001600160a01b03861690811790915590518392907fddf252ad1be2c89b69c2b068fc378daa952ba7f163c4a11628f55a4df523b3ef908290a45050565b3b151590565b828054611b5290612780565b90600052602060002090601f016020900481019282611b745760008555611bba565b82601f10611b8d57805160ff1916838001178555611bba565b82800160010185558215611bba579182015b82811115611bba578251825591602001919060010190611b9f565b50611bc6929150611bca565b5090565b5b80821115611bc65760008155600101611bcb565b60006001600160401b03831115611bf857611bf8612858565b611c0b601f8401601f1916602001612672565b9050828152838383011115611c1f57600080fd5b828260208301376000602084830101529392505050565b80356001600160a01b03811681146105a157600080fd5b803561ffff811681146105a157600080fd5b600060208284031215611c70578081fd5b6110fa82611c36565b60008060408385031215611c8b578081fd5b611c9483611c36565b915061078760208401611c36565b600080600060608486031215611cb6578081fd5b611cbf84611c36565b9250611ccd60208501611c36565b9150604084013590509250925092565b60008060008060808587031215611cf2578081fd5b611cfb85611c36565b9350611d0960208601611c36565b92506040850135915060608501356001600160401b03811115611d2a578182fd5b8501601f81018713611d3a578182fd5b611d4987823560208401611bdf565b91505092959194509250565b60008060408385031215611d67578182fd5b611d7083611c36565b915060208301358015158114611d84578182fd5b809150509250929050565b60008060408385031215611da1578182fd5b611daa83611c36565b946020939093013593505050565b60006020808385031215611dca578182fd5b82356001600160401b0380821115611de0578384fd5b818501915085601f830112611df3578384fd5b813581811115611e0557611e05612858565b8381029150611e15848301612672565b8181528481019084860184860187018a1015611e2f578788fd5b8795505b83861015611e5857611e4481611c4d565b835260019590950194918601918601611e33565b5098975050505050505050565b600060208284031215611e76578081fd5b81356110ba8161286e565b600060208284031215611e92578081fd5b81516110ba8161286e565b600060208284031215611eae578081fd5b81356001600160401b03811115611ec3578182fd5b8201601f81018413611ed3578182fd5b61158f84823560208401611bdf565b600060208284031215611ef3578081fd5b6110fa82611c4d565b60008060408385031215611f0e578182fd5b611f1783611c4d565b915061078760208401611c4d565b600060208284031215611f36578081fd5b5035919050565b60008060408385031215611f4f578182fd5b50508035926020909101359150565b60008151808452611f7681602086016020860161273d565b601f01601f19169290920160200192915050565b60008351611f9c81846020880161273d565b835190830190611fb081836020880161273d565b01949350505050565b92835260609190911b6001600160601b0319166020830152603482015260540190565b6001600160a01b0391909116815260200190565b6001600160a01b038581168252841660208201526040810183905260806060820181905260009061202390830184611f5e565b9695505050505050565b6001600160a01b03929092168252602082015260400190565b6020808252825182820181905260009190848201906040850190845b8181101561208257835161ffff1683529284019291840191600101612062565b50909695505050505050565b901515815260200190565b6000602082526110fa6020830184611f5e565b6020808252602b908201527f416c7265616479206d696e746564206d617820616d6f756e7420666f7220746860408201526a697320616464726573732160a81b606082015260800190565b60208082526032908201527f4552433732313a207472616e7366657220746f206e6f6e20455243373231526560408201527131b2b4bb32b91034b6b83632b6b2b73a32b960711b606082015260800190565b60208082526026908201527f4f776e61626c653a206e6577206f776e657220697320746865207a65726f206160408201526564647265737360d01b606082015260800190565b6020808252601c908201527b115490cdcc8c4e881d1bdad95b88185b1c9958591e481b5a5b9d195960221b604082015260600190565b60208082526024908201527f4552433732313a207472616e7366657220746f20746865207a65726f206164646040820152637265737360e01b606082015260800190565b60208082526019908201527822a9219b99189d1030b8383937bb32903a379031b0b63632b960391b604082015260600190565b6020808252602c908201527f4552433732313a206f70657261746f7220717565727920666f72206e6f6e657860408201526b34b9ba32b73a103a37b5b2b760a11b606082015260800190565b6020808252601f908201527f476976656177617920746f6b656e73206e6f74206d696e746564207965742100604082015260600190565b60208082526038908201527f4552433732313a20617070726f76652063616c6c6572206973206e6f74206f776040820152771b995c881b9bdc88185c1c1c9bdd995908199bdc88185b1b60421b606082015260800190565b6020808252602a908201527f4552433732313a2062616c616e636520717565727920666f7220746865207a65604082015269726f206164647265737360b01b606082015260800190565b60208082526029908201527f4552433732313a206f776e657220717565727920666f72206e6f6e657869737460408201526832b73a103a37b5b2b760b91b606082015260800190565b6020808252818101527f4552433732313a206d696e7420746f20746865207a65726f2061646472657373604082015260600190565b6020808252602c908201527f4552433732313a20617070726f76656420717565727920666f72206e6f6e657860408201526b34b9ba32b73a103a37b5b2b760a11b606082015260800190565b6020808252818101527f4f776e61626c653a2063616c6c6572206973206e6f7420746865206f776e6572604082015260600190565b60208082526029908201527f4552433732313a207472616e73666572206f6620746f6b656e2074686174206960408201526839903737ba1037bbb760b91b606082015260800190565b6020808252602f908201527f4552433732314d657461646174613a2055524920717565727920666f72206e6f60408201526e3732bc34b9ba32b73a103a37b5b2b760891b606082015260800190565b60208082526021908201527f4552433732313a20617070726f76616c20746f2063757272656e74206f776e656040820152603960f91b606082015260800190565b60208082526031908201527f4552433732313a207472616e736665722063616c6c6572206973206e6f74206f6040820152701ddb995c881b9bdc88185c1c1c9bdd9959607a1b606082015260800190565b6020808252818101527f416c6c206769766561776179204e46547320616c7265616479206d696e746564604082015260600190565b602080825260139082015272496e73756666696369656e742066756e64732160681b604082015260600190565b6020808252600f908201526e4e6f20746f6b656e73206c6566742160881b604082015260600190565b6020808252601d908201527f4d617820746f6b656e7320616c726561647920706f70756c6174656421000000604082015260600190565b61ffff91909116815260200190565b90815260200190565b60ff91909116815260200190565b6040518181016001600160401b038111828210171561269357612693612858565b604052919050565b600061ffff808316818516808303821115611fb057611fb061282c565b600082198211156126cb576126cb61282c565b500190565b6000826126df576126df612842565b500490565b60008160001904831182151516156126fe576126fe61282c565b500290565b600061ffff8381169083168181101561271e5761271e61282c565b039392505050565b6000828210156127385761273861282c565b500390565b60005b83811015612758578181015183820152602001612740565b8381111561102e5750506000910152565b6000816127785761277861282c565b506000190190565b60028104600182168061279457607f821691505b602082108114156127b557634e487b7160e01b600052602260045260246000fd5b50919050565b600061ffff808316818114156127d3576127d361282c565b6001019392505050565b60006000198214156127f1576127f161282c565b5060010190565b600060ff821660ff81141561280f5761280f61282c565b60010192915050565b60008261282757612827612842565b500690565b634e487b7160e01b600052601160045260246000fd5b634e487b7160e01b600052601260045260246000fd5b634e487b7160e01b600052604160045260246000fd5b6001600160e01b031981168114610af057600080fdfea2646970667358221220e4ec8300cf5f422135e60132b456bb4507d514ef5f71d69ea7a848879754f01164736f6c63430008000033697066733a2f2f516d5743567a6e78326f66446b416647714d78485a4b33633575616162427854724d4c62616d66644e4a3135655a2f",
  "linkReferences": {},
  "deployedLinkReferences": {}
}